{
  "_format": "hh-sol-artifact-1",
  "contractName": "Yieldy",
  "sourceName": "src/contracts/Yieldy.sol",
  "abi": [
    {
      "anonymous": false,
      "inputs": [
        {
          "indexed": true,
          "internalType": "address",
          "name": "owner",
          "type": "address"
        },
        {
          "indexed": true,
          "internalType": "address",
          "name": "spender",
          "type": "address"
        },
        {
          "indexed": false,
          "internalType": "uint256",
          "name": "value",
          "type": "uint256"
        }
      ],
      "name": "Approval",
      "type": "event"
    },
    {
      "anonymous": false,
      "inputs": [
        {
          "indexed": true,
          "internalType": "uint256",
          "name": "epoch",
          "type": "uint256"
        },
        {
          "indexed": false,
          "internalType": "uint256",
          "name": "rebase",
          "type": "uint256"
        },
        {
          "indexed": false,
          "internalType": "uint256",
          "name": "index",
          "type": "uint256"
        }
      ],
      "name": "LogRebase",
      "type": "event"
    },
    {
      "anonymous": false,
      "inputs": [
        {
          "indexed": true,
          "internalType": "uint256",
          "name": "epoch",
          "type": "uint256"
        },
        {
          "indexed": false,
          "internalType": "uint256",
          "name": "timestamp",
          "type": "uint256"
        },
        {
          "indexed": false,
          "internalType": "uint256",
          "name": "totalSupply",
          "type": "uint256"
        }
      ],
      "name": "LogSupply",
      "type": "event"
    },
    {
      "anonymous": false,
      "inputs": [
        {
          "indexed": true,
          "internalType": "bytes32",
          "name": "role",
          "type": "bytes32"
        },
        {
          "indexed": true,
          "internalType": "bytes32",
          "name": "previousAdminRole",
          "type": "bytes32"
        },
        {
          "indexed": true,
          "internalType": "bytes32",
          "name": "newAdminRole",
          "type": "bytes32"
        }
      ],
      "name": "RoleAdminChanged",
      "type": "event"
    },
    {
      "anonymous": false,
      "inputs": [
        {
          "indexed": true,
          "internalType": "bytes32",
          "name": "role",
          "type": "bytes32"
        },
        {
          "indexed": true,
          "internalType": "address",
          "name": "account",
          "type": "address"
        },
        {
          "indexed": true,
          "internalType": "address",
          "name": "sender",
          "type": "address"
        }
      ],
      "name": "RoleGranted",
      "type": "event"
    },
    {
      "anonymous": false,
      "inputs": [
        {
          "indexed": true,
          "internalType": "bytes32",
          "name": "role",
          "type": "bytes32"
        },
        {
          "indexed": true,
          "internalType": "address",
          "name": "account",
          "type": "address"
        },
        {
          "indexed": true,
          "internalType": "address",
          "name": "sender",
          "type": "address"
        }
      ],
      "name": "RoleRevoked",
      "type": "event"
    },
    {
      "anonymous": false,
      "inputs": [
        {
          "indexed": true,
          "internalType": "address",
          "name": "from",
          "type": "address"
        },
        {
          "indexed": true,
          "internalType": "address",
          "name": "to",
          "type": "address"
        },
        {
          "indexed": false,
          "internalType": "uint256",
          "name": "value",
          "type": "uint256"
        }
      ],
      "name": "Transfer",
      "type": "event"
    },
    {
      "inputs": [],
      "name": "ADMIN_ROLE",
      "outputs": [
        {
          "internalType": "bytes32",
          "name": "",
          "type": "bytes32"
        }
      ],
      "stateMutability": "view",
      "type": "function"
    },
    {
      "inputs": [],
      "name": "DEFAULT_ADMIN_ROLE",
      "outputs": [
        {
          "internalType": "bytes32",
          "name": "",
          "type": "bytes32"
        }
      ],
      "stateMutability": "view",
      "type": "function"
    },
    {
      "inputs": [],
      "name": "DOMAIN_SEPARATOR",
      "outputs": [
        {
          "internalType": "bytes32",
          "name": "",
          "type": "bytes32"
        }
      ],
      "stateMutability": "view",
      "type": "function"
    },
    {
      "inputs": [],
      "name": "MINTER_BURNER_ROLE",
      "outputs": [
        {
          "internalType": "bytes32",
          "name": "",
          "type": "bytes32"
        }
      ],
      "stateMutability": "view",
      "type": "function"
    },
    {
      "inputs": [],
      "name": "REBASE_ROLE",
      "outputs": [
        {
          "internalType": "bytes32",
          "name": "",
          "type": "bytes32"
        }
      ],
      "stateMutability": "view",
      "type": "function"
    },
    {
      "inputs": [
        {
          "internalType": "address",
          "name": "owner",
          "type": "address"
        },
        {
          "internalType": "address",
          "name": "spender",
          "type": "address"
        }
      ],
      "name": "allowance",
      "outputs": [
        {
          "internalType": "uint256",
          "name": "",
          "type": "uint256"
        }
      ],
      "stateMutability": "view",
      "type": "function"
    },
    {
      "inputs": [
        {
          "internalType": "address",
          "name": "spender",
          "type": "address"
        },
        {
          "internalType": "uint256",
          "name": "amount",
          "type": "uint256"
        }
      ],
      "name": "approve",
      "outputs": [
        {
          "internalType": "bool",
          "name": "",
          "type": "bool"
        }
      ],
      "stateMutability": "nonpayable",
      "type": "function"
    },
    {
      "inputs": [
        {
          "internalType": "address",
          "name": "_wallet",
          "type": "address"
        }
      ],
      "name": "balanceOf",
      "outputs": [
        {
          "internalType": "uint256",
          "name": "",
          "type": "uint256"
        }
      ],
      "stateMutability": "view",
      "type": "function"
    },
    {
      "inputs": [
        {
          "internalType": "address",
          "name": "_address",
          "type": "address"
        },
        {
          "internalType": "uint256",
          "name": "_amount",
          "type": "uint256"
        }
      ],
      "name": "burn",
      "outputs": [],
      "stateMutability": "nonpayable",
      "type": "function"
    },
    {
      "inputs": [
        {
          "internalType": "address",
          "name": "",
          "type": "address"
        }
      ],
      "name": "creditBalances",
      "outputs": [
        {
          "internalType": "uint256",
          "name": "",
          "type": "uint256"
        }
      ],
      "stateMutability": "view",
      "type": "function"
    },
    {
      "inputs": [
        {
          "internalType": "uint256",
          "name": "_amount",
          "type": "uint256"
        }
      ],
      "name": "creditsForTokenBalance",
      "outputs": [
        {
          "internalType": "uint256",
          "name": "",
          "type": "uint256"
        }
      ],
      "stateMutability": "view",
      "type": "function"
    },
    {
      "inputs": [],
      "name": "decimals",
      "outputs": [
        {
          "internalType": "uint8",
          "name": "",
          "type": "uint8"
        }
      ],
      "stateMutability": "view",
      "type": "function"
    },
    {
      "inputs": [
        {
          "internalType": "address",
          "name": "spender",
          "type": "address"
        },
        {
          "internalType": "uint256",
          "name": "subtractedValue",
          "type": "uint256"
        }
      ],
      "name": "decreaseAllowance",
      "outputs": [
        {
          "internalType": "bool",
          "name": "",
          "type": "bool"
        }
      ],
      "stateMutability": "nonpayable",
      "type": "function"
    },
    {
      "inputs": [],
      "name": "getIndex",
      "outputs": [
        {
          "internalType": "uint256",
          "name": "",
          "type": "uint256"
        }
      ],
      "stateMutability": "view",
      "type": "function"
    },
    {
      "inputs": [
        {
          "internalType": "bytes32",
          "name": "role",
          "type": "bytes32"
        }
      ],
      "name": "getRoleAdmin",
      "outputs": [
        {
          "internalType": "bytes32",
          "name": "",
          "type": "bytes32"
        }
      ],
      "stateMutability": "view",
      "type": "function"
    },
    {
      "inputs": [
        {
          "internalType": "bytes32",
          "name": "role",
          "type": "bytes32"
        },
        {
          "internalType": "address",
          "name": "account",
          "type": "address"
        }
      ],
      "name": "grantRole",
      "outputs": [],
      "stateMutability": "nonpayable",
      "type": "function"
    },
    {
      "inputs": [
        {
          "internalType": "bytes32",
          "name": "role",
          "type": "bytes32"
        },
        {
          "internalType": "address",
          "name": "account",
          "type": "address"
        }
      ],
      "name": "hasRole",
      "outputs": [
        {
          "internalType": "bool",
          "name": "",
          "type": "bool"
        }
      ],
      "stateMutability": "view",
      "type": "function"
    },
    {
      "inputs": [
        {
          "internalType": "address",
          "name": "spender",
          "type": "address"
        },
        {
          "internalType": "uint256",
          "name": "addedValue",
          "type": "uint256"
        }
      ],
      "name": "increaseAllowance",
      "outputs": [
        {
          "internalType": "bool",
          "name": "",
          "type": "bool"
        }
      ],
      "stateMutability": "nonpayable",
      "type": "function"
    },
    {
      "inputs": [],
      "name": "index",
      "outputs": [
        {
          "internalType": "uint256",
          "name": "",
          "type": "uint256"
        }
      ],
      "stateMutability": "view",
      "type": "function"
    },
    {
      "inputs": [
        {
          "internalType": "string",
          "name": "_tokenName",
          "type": "string"
        },
        {
          "internalType": "string",
          "name": "_tokenSymbol",
          "type": "string"
        },
        {
          "internalType": "uint8",
          "name": "_decimal",
          "type": "uint8"
        }
      ],
      "name": "initialize",
      "outputs": [],
      "stateMutability": "nonpayable",
      "type": "function"
    },
    {
      "inputs": [
        {
          "internalType": "address",
          "name": "_stakingContract",
          "type": "address"
        }
      ],
      "name": "initializeStakingContract",
      "outputs": [],
      "stateMutability": "nonpayable",
      "type": "function"
    },
    {
      "inputs": [
        {
          "internalType": "address",
          "name": "_address",
          "type": "address"
        },
        {
          "internalType": "uint256",
          "name": "_amount",
          "type": "uint256"
        }
      ],
      "name": "mint",
      "outputs": [],
      "stateMutability": "nonpayable",
      "type": "function"
    },
    {
      "inputs": [],
      "name": "name",
      "outputs": [
        {
          "internalType": "string",
          "name": "",
          "type": "string"
        }
      ],
      "stateMutability": "view",
      "type": "function"
    },
    {
      "inputs": [
        {
          "internalType": "address",
          "name": "owner",
          "type": "address"
        }
      ],
      "name": "nonces",
      "outputs": [
        {
          "internalType": "uint256",
          "name": "",
          "type": "uint256"
        }
      ],
      "stateMutability": "view",
      "type": "function"
    },
    {
      "inputs": [
        {
          "internalType": "address",
          "name": "owner",
          "type": "address"
        },
        {
          "internalType": "address",
          "name": "spender",
          "type": "address"
        },
        {
          "internalType": "uint256",
          "name": "value",
          "type": "uint256"
        },
        {
          "internalType": "uint256",
          "name": "deadline",
          "type": "uint256"
        },
        {
          "internalType": "uint8",
          "name": "v",
          "type": "uint8"
        },
        {
          "internalType": "bytes32",
          "name": "r",
          "type": "bytes32"
        },
        {
          "internalType": "bytes32",
          "name": "s",
          "type": "bytes32"
        }
      ],
      "name": "permit",
      "outputs": [],
      "stateMutability": "nonpayable",
      "type": "function"
    },
    {
      "inputs": [
        {
          "internalType": "uint256",
          "name": "_profit",
          "type": "uint256"
        },
        {
          "internalType": "uint256",
          "name": "_epoch",
          "type": "uint256"
        }
      ],
      "name": "rebase",
      "outputs": [],
      "stateMutability": "nonpayable",
      "type": "function"
    },
    {
      "inputs": [
        {
          "internalType": "uint256",
          "name": "",
          "type": "uint256"
        }
      ],
      "name": "rebases",
      "outputs": [
        {
          "internalType": "uint256",
          "name": "epoch",
          "type": "uint256"
        },
        {
          "internalType": "uint256",
          "name": "rebase",
          "type": "uint256"
        },
        {
          "internalType": "uint256",
          "name": "totalStakedBefore",
          "type": "uint256"
        },
        {
          "internalType": "uint256",
          "name": "totalStakedAfter",
          "type": "uint256"
        },
        {
          "internalType": "uint256",
          "name": "amountRebased",
          "type": "uint256"
        },
        {
          "internalType": "uint256",
          "name": "index",
          "type": "uint256"
        },
        {
          "internalType": "uint256",
          "name": "blockNumberOccurred",
          "type": "uint256"
        }
      ],
      "stateMutability": "view",
      "type": "function"
    },
    {
      "inputs": [],
      "name": "rebasingCredits",
      "outputs": [
        {
          "internalType": "uint256",
          "name": "",
          "type": "uint256"
        }
      ],
      "stateMutability": "view",
      "type": "function"
    },
    {
      "inputs": [],
      "name": "rebasingCreditsPerToken",
      "outputs": [
        {
          "internalType": "uint256",
          "name": "",
          "type": "uint256"
        }
      ],
      "stateMutability": "view",
      "type": "function"
    },
    {
      "inputs": [
        {
          "internalType": "bytes32",
          "name": "role",
          "type": "bytes32"
        },
        {
          "internalType": "address",
          "name": "account",
          "type": "address"
        }
      ],
      "name": "renounceRole",
      "outputs": [],
      "stateMutability": "nonpayable",
      "type": "function"
    },
    {
      "inputs": [
        {
          "internalType": "bytes32",
          "name": "role",
          "type": "bytes32"
        },
        {
          "internalType": "address",
          "name": "account",
          "type": "address"
        }
      ],
      "name": "revokeRole",
      "outputs": [],
      "stateMutability": "nonpayable",
      "type": "function"
    },
    {
      "inputs": [],
      "name": "stakingContract",
      "outputs": [
        {
          "internalType": "address",
          "name": "",
          "type": "address"
        }
      ],
      "stateMutability": "view",
      "type": "function"
    },
    {
      "inputs": [
        {
          "internalType": "bytes4",
          "name": "interfaceId",
          "type": "bytes4"
        }
      ],
      "name": "supportsInterface",
      "outputs": [
        {
          "internalType": "bool",
          "name": "",
          "type": "bool"
        }
      ],
      "stateMutability": "view",
      "type": "function"
    },
    {
      "inputs": [],
      "name": "symbol",
      "outputs": [
        {
          "internalType": "string",
          "name": "",
          "type": "string"
        }
      ],
      "stateMutability": "view",
      "type": "function"
    },
    {
      "inputs": [
        {
          "internalType": "uint256",
          "name": "_credits",
          "type": "uint256"
        }
      ],
      "name": "tokenBalanceForCredits",
      "outputs": [
        {
          "internalType": "uint256",
          "name": "",
          "type": "uint256"
        }
      ],
      "stateMutability": "view",
      "type": "function"
    },
    {
      "inputs": [],
      "name": "totalSupply",
      "outputs": [
        {
          "internalType": "uint256",
          "name": "",
          "type": "uint256"
        }
      ],
      "stateMutability": "view",
      "type": "function"
    },
    {
      "inputs": [
        {
          "internalType": "address",
          "name": "_to",
          "type": "address"
        },
        {
          "internalType": "uint256",
          "name": "_value",
          "type": "uint256"
        }
      ],
      "name": "transfer",
      "outputs": [
        {
          "internalType": "bool",
          "name": "",
          "type": "bool"
        }
      ],
      "stateMutability": "nonpayable",
      "type": "function"
    },
    {
      "inputs": [
        {
          "internalType": "address",
          "name": "_from",
          "type": "address"
        },
        {
          "internalType": "address",
          "name": "_to",
          "type": "address"
        },
        {
          "internalType": "uint256",
          "name": "_value",
          "type": "uint256"
        }
      ],
      "name": "transferFrom",
      "outputs": [
        {
          "internalType": "bool",
          "name": "",
          "type": "bool"
        }
      ],
      "stateMutability": "nonpayable",
      "type": "function"
    }
  ],
  "bytecode": "0x608060405234801561001057600080fd5b50613319806100206000396000f3fe608060405234801561001057600080fd5b50600436106102925760003560e01c806370a08231116101605780639dc29fac116100d8578063d505accf1161008c578063dd62ed3e11610071578063dd62ed3e146105b1578063edaefc31146105f7578063ee99205c1461061e57600080fd5b8063d505accf1461058b578063d547741f1461059e57600080fd5b8063a457c2d7116100bd578063a457c2d714610552578063a9059cbb14610565578063bcc5ceca1461057857600080fd5b80639dc29fac14610537578063a217fddf1461054a57600080fd5b80637ecebe001161012f57806391d148541161011457806391d14854146104d657806392386fb51461051c57806395d89b411461052f57600080fd5b80637ecebe00146104bb57806381045ead146104ce57600080fd5b806370a082311461041257806372c328601461042557806373c69eb71461044c57806375b238fc1461049457600080fd5b8063248a9ca31161020e57806336568abe116101c257806340c10f19116101a757806340c10f19146103d65780636009a2d8146103e95780636691cb3d1461040957600080fd5b806336568abe146103b057806339509351146103c357600080fd5b80632f2ff15d116101f35780632f2ff15d14610380578063313ce567146103935780633644e515146103a857600080fd5b8063248a9ca3146103545780632986c0e51461037757600080fd5b8063095ea7b31161026557806318160ddd1161024a57806318160ddd1461032657806320eed4291461032e57806323b872dd1461034157600080fd5b8063095ea7b3146103005780631624f6c61461031357600080fd5b806301ffc9a714610297578063058ecdb4146102bf57806306fdde03146102d4578063077f22b7146102e9575b600080fd5b6102aa6102a5366004612bb9565b610663565b60405190151581526020015b60405180910390f35b6102d26102cd366004612bfb565b6106fc565b005b6102dc6108e9565b6040516102b69190612c49565b6102f260055481565b6040519081526020016102b6565b6102aa61030e366004612cc3565b61097b565b6102d2610321366004612dd8565b610991565b603c546102f2565b6102f261033c366004612e4c565b610c08565b6102aa61034f366004612e65565b610c18565b6102f2610362366004612e4c565b600090815260d8602052604090206001015490565b6102f260025481565b6102d261038e366004612ea1565b610e49565b60075460405160ff90911681526020016102b6565b6102f2610e74565b6102d26103be366004612ea1565b610e83565b6102aa6103d1366004612cc3565b610f36565b6102d26103e4366004612cc3565b610f7f565b6102f26103f7366004612ecd565b60066020526000908152604090205481565b6102f260045481565b6102f2610420366004612ecd565b610fb4565b6102f27fcfd53186d792f1ec9d0679afc2dc3ffc86fc31fe1e0f342b838eb6c3eade62b381565b61045f61045a366004612e4c565b610fe8565b604080519788526020880196909652948601939093526060850191909152608084015260a083015260c082015260e0016102b6565b6102f27fdf8b4c520ffe197c5343c6f5aec59570151ef9a492f2c624fd45ddde6135ec4281565b6102f26104c9366004612ecd565b61103a565b6102f2611065565b6102aa6104e4366004612ea1565b600091825260d86020908152604080842073ffffffffffffffffffffffffffffffffffffffff93909316845291905290205460ff1690565b6102f261052a366004612e4c565b61106e565b6102dc61107e565b6102d2610545366004612cc3565b61108d565b6102f2600081565b6102aa610560366004612cc3565b6110c2565b6102aa610573366004612cc3565b61119a565b6102d2610586366004612ecd565b61136a565b6102d2610599366004612ee8565b611526565b6102d26105ac366004612ea1565b6116e5565b6102f26105bf366004612f52565b73ffffffffffffffffffffffffffffffffffffffff9182166000908152603b6020908152604080832093909416825291909152205490565b6102f27f2cb8fee3430f011f8ea5df36a120dd5a293aa25c9ca88cc51159a94f41f768bb81565b60005461063e9073ffffffffffffffffffffffffffffffffffffffff1681565b60405173ffffffffffffffffffffffffffffffffffffffff90911681526020016102b6565b60007fffffffff0000000000000000000000000000000000000000000000000000000082167f7965db0b0000000000000000000000000000000000000000000000000000000014806106f657507f01ffc9a7000000000000000000000000000000000000000000000000000000007fffffffff000000000000000000000000000000000000000000000000000000008316145b92915050565b7f2cb8fee3430f011f8ea5df36a120dd5a293aa25c9ca88cc51159a94f41f768bb610727813361170b565b603c5480610796576040517f08c379a000000000000000000000000000000000000000000000000000000000815260206004820152601f60248201527f43616e277420726562617365206966206e6f742063697263756c6174696e670060448201526064015b60405180910390fd5b8361081f57604080514281526020810183905284917f917acfbe39be6509ccf7fecb66a7e42ce2be1083c2d7dd3b9b7491dabddb8da4910160405180910390a2827f6012dbce857565c4a40974aa5de8373a761fc429077ef0c8c8611d1e20d63fb26000610802611065565b6040805192835260208301919091520160405180910390a26108e3565b600061082b8583612fab565b90506fffffffffffffffffffffffffffffffff81111561085857506fffffffffffffffffffffffffffffffff5b806005546108669190612fc3565b60048190556108d1576040517f08c379a000000000000000000000000000000000000000000000000000000000815260206004820152601860248201527f496e76616c6964206368616e676520696e20737570706c790000000000000000604482015260640161078d565b603c8190556108e18186866117dd565b505b50505050565b6060603d80546108f890612ffe565b80601f016020809104026020016040519081016040528092919081815260200182805461092490612ffe565b80156109715780601f1061094657610100808354040283529160200191610971565b820191906000526020600020905b81548152906001019060200180831161095457829003601f168201915b5050505050905090565b600061098833848461191a565b50600192915050565b60075462010000900460ff166109b257600754610100900460ff16156109b6565b303b155b610a42576040517f08c379a000000000000000000000000000000000000000000000000000000000815260206004820152602e60248201527f496e697469616c697a61626c653a20636f6e747261637420697320616c72656160448201527f647920696e697469616c697a6564000000000000000000000000000000000000606482015260840161078d565b60075462010000900460ff16158015610a8357600780547fffffffffffffffffffffffffffffffffffffffffffffffffffffffffff0000ff16620101001790555b610a8d8484611ace565b610a9684611b70565b610a9e611c4a565b610ac87fdf8b4c520ffe197c5343c6f5aec59570151ef9a492f2c624fd45ddde6135ec4233611ce4565b610af27fdf8b4c520ffe197c5343c6f5aec59570151ef9a492f2c624fd45ddde6135ec4280611cee565b610b3c7fcfd53186d792f1ec9d0679afc2dc3ffc86fc31fe1e0f342b838eb6c3eade62b37fdf8b4c520ffe197c5343c6f5aec59570151ef9a492f2c624fd45ddde6135ec42611cee565b610b867f2cb8fee3430f011f8ea5df36a120dd5a293aa25c9ca88cc51159a94f41f768bb7fdf8b4c520ffe197c5343c6f5aec59570151ef9a492f2c624fd45ddde6135ec42611cee565b600780547fffffffffffffffffffffffffffffffffffffffffffffffffffffffffffffff001660ff8416908117909155610bc190600a61316c565b60038190556004819055610bd490611d39565b80156108e357600780547fffffffffffffffffffffffffffffffffffffffffffffffffffffffffff00ffff16905550505050565b6000600454826106f6919061317b565b73ffffffffffffffffffffffffffffffffffffffff83166000908152603b60209081526040808320338452909152812054821115610cb2576040517f08c379a000000000000000000000000000000000000000000000000000000000815260206004820152601160248201527f416c6c6f77616e636520746f6f206c6f77000000000000000000000000000000604482015260640161078d565b73ffffffffffffffffffffffffffffffffffffffff84166000908152603b60209081526040808320338452909152812054610cee9084906131b8565b73ffffffffffffffffffffffffffffffffffffffff86166000818152603b6020908152604080832033808552908352928190208590555184815293945090927f8c5be1e5ebec7d5bd14f71427d1e84f3dd0314c0f7b2291e5b200ac8c7c3b925910160405180910390a36000610d6384610c08565b73ffffffffffffffffffffffffffffffffffffffff8716600090815260066020526040902054909150610d979082906131b8565b73ffffffffffffffffffffffffffffffffffffffff8088166000908152600660205260408082209390935590871681522054610dd4908290612fab565b73ffffffffffffffffffffffffffffffffffffffff80871660008181526006602052604090819020939093559151908816907fddf252ad1be2c89b69c2b068fc378daa952ba7f163c4a11628f55a4df523b3ef90610e359088815260200190565b60405180910390a350600195945050505050565b600082815260d86020526040902060010154610e65813361170b565b610e6f8383611d48565b505050565b6000610e7e611e3c565b905090565b73ffffffffffffffffffffffffffffffffffffffff81163314610f28576040517f08c379a000000000000000000000000000000000000000000000000000000000815260206004820152602f60248201527f416363657373436f6e74726f6c3a2063616e206f6e6c792072656e6f756e636560448201527f20726f6c657320666f722073656c660000000000000000000000000000000000606482015260840161078d565b610f328282611eaf565b5050565b336000818152603b6020908152604080832073ffffffffffffffffffffffffffffffffffffffff871684529091528120549091610988918590610f7a908690612fab565b61191a565b7fcfd53186d792f1ec9d0679afc2dc3ffc86fc31fe1e0f342b838eb6c3eade62b3610faa813361170b565b610e6f8383611f6a565b60045473ffffffffffffffffffffffffffffffffffffffff821660009081526006602052604081205490916106f691612fc3565b60018181548110610ff857600080fd5b90600052602060002090600702016000915090508060000154908060010154908060020154908060030154908060040154908060050154908060060154905087565b73ffffffffffffffffffffffffffffffffffffffff81166000908152607360205260408120546106f6565b6000610e7e6002545b6000600454826106f69190612fc3565b6060603e80546108f890612ffe565b7fcfd53186d792f1ec9d0679afc2dc3ffc86fc31fe1e0f342b838eb6c3eade62b36110b8813361170b565b610e6f8383612138565b336000908152603b6020908152604080832073ffffffffffffffffffffffffffffffffffffffff8616845290915281205482811015611183576040517f08c379a000000000000000000000000000000000000000000000000000000000815260206004820152602560248201527f45524332303a2064656372656173656420616c6c6f77616e63652062656c6f7760448201527f207a65726f000000000000000000000000000000000000000000000000000000606482015260840161078d565b611190338585840361191a565b5060019392505050565b600073ffffffffffffffffffffffffffffffffffffffff8316611219576040517f08c379a000000000000000000000000000000000000000000000000000000000815260206004820152600f60248201527f496e76616c696420616464726573730000000000000000000000000000000000604482015260640161078d565b600060045483611229919061317b565b336000908152600660205260409020549091508111156112a5576040517f08c379a000000000000000000000000000000000000000000000000000000000815260206004820152601060248201527f4e6f7420656e6f7567682066756e647300000000000000000000000000000000604482015260640161078d565b336000908152600660205260409020546112c09082906131b8565b336000908152600660205260408082209290925573ffffffffffffffffffffffffffffffffffffffff8616815220546112fa908290612fab565b73ffffffffffffffffffffffffffffffffffffffff85166000818152600660205260409081902092909255905133907fddf252ad1be2c89b69c2b068fc378daa952ba7f163c4a11628f55a4df523b3ef906113589087815260200190565b60405180910390a35060019392505050565b7fdf8b4c520ffe197c5343c6f5aec59570151ef9a492f2c624fd45ddde6135ec42611395813361170b565b60005473ffffffffffffffffffffffffffffffffffffffff1615611415576040517f08c379a000000000000000000000000000000000000000000000000000000000815260206004820152601360248201527f416c726561647920496e697469616c697a656400000000000000000000000000604482015260640161078d565b73ffffffffffffffffffffffffffffffffffffffff8216611492576040517f08c379a000000000000000000000000000000000000000000000000000000000815260206004820152600f60248201527f496e76616c696420616464726573730000000000000000000000000000000000604482015260640161078d565b600080547fffffffffffffffffffffffff00000000000000000000000000000000000000001673ffffffffffffffffffffffffffffffffffffffff84161790556114fc7fcfd53186d792f1ec9d0679afc2dc3ffc86fc31fe1e0f342b838eb6c3eade62b383611ce4565b610f327f2cb8fee3430f011f8ea5df36a120dd5a293aa25c9ca88cc51159a94f41f768bb83611ce4565b83421115611590576040517f08c379a000000000000000000000000000000000000000000000000000000000815260206004820152601d60248201527f45524332305065726d69743a206578706972656420646561646c696e65000000604482015260640161078d565b60007f6e71edae12b1b97f4d1f60370fef10105fa2faae0126114a169c64845d6126c98888886115bf8c61232e565b60408051602081019690965273ffffffffffffffffffffffffffffffffffffffff94851690860152929091166060840152608083015260a082015260c0810186905260e001604051602081830303815290604052805190602001209050600061162782612363565b90506000611637828787876123cc565b90508973ffffffffffffffffffffffffffffffffffffffff168173ffffffffffffffffffffffffffffffffffffffff16146116ce576040517f08c379a000000000000000000000000000000000000000000000000000000000815260206004820152601e60248201527f45524332305065726d69743a20696e76616c6964207369676e61747572650000604482015260640161078d565b6116d98a8a8a61191a565b50505050505050505050565b600082815260d86020526040902060010154611701813361170b565b610e6f8383611eaf565b600082815260d86020908152604080832073ffffffffffffffffffffffffffffffffffffffff8516845290915290205460ff16610f32576117638173ffffffffffffffffffffffffffffffffffffffff1660146123f4565b61176e8360206123f4565b60405160200161177f9291906131cf565b604080517fffffffffffffffffffffffffffffffffffffffffffffffffffffffffffffffe0818403018152908290527f08c379a000000000000000000000000000000000000000000000000000000000825261078d91600401612c49565b600083600354846117ee919061317b565b6117f89190612fc3565b905060016040518060e00160405280848152602001838152602001868152602001603c54815260200185815260200161182f611065565b815243602091820152825460018082018555600094855293829020835160079092020190815582820151938101939093556040808301516002850155606083015160038501556080830151600485015560a0830151600585015560c090920151600690930192909255603c5481514281529283015283917f917acfbe39be6509ccf7fecb66a7e42ce2be1083c2d7dd3b9b7491dabddb8da4910160405180910390a2817f6012dbce857565c4a40974aa5de8373a761fc429077ef0c8c8611d1e20d63fb2826118fc611065565b6040805192835260208301919091520160405180910390a250505050565b73ffffffffffffffffffffffffffffffffffffffff83166119bc576040517f08c379a0000000000000000000000000000000000000000000000000000000008152602060048201526024808201527f45524332303a20617070726f76652066726f6d20746865207a65726f2061646460448201527f7265737300000000000000000000000000000000000000000000000000000000606482015260840161078d565b73ffffffffffffffffffffffffffffffffffffffff8216611a5f576040517f08c379a000000000000000000000000000000000000000000000000000000000815260206004820152602260248201527f45524332303a20617070726f766520746f20746865207a65726f20616464726560448201527f7373000000000000000000000000000000000000000000000000000000000000606482015260840161078d565b73ffffffffffffffffffffffffffffffffffffffff8381166000818152603b602090815260408083209487168084529482529182902085905590518481527f8c5be1e5ebec7d5bd14f71427d1e84f3dd0314c0f7b2291e5b200ac8c7c3b92591015b60405180910390a3505050565b60075462010000900460ff16611b66576040517f08c379a000000000000000000000000000000000000000000000000000000000815260206004820152602b60248201527f496e697469616c697a61626c653a20636f6e7472616374206973206e6f74206960448201527f6e697469616c697a696e67000000000000000000000000000000000000000000606482015260840161078d565b610f32828261263e565b60075462010000900460ff16611c08576040517f08c379a000000000000000000000000000000000000000000000000000000000815260206004820152602b60248201527f496e697469616c697a61626c653a20636f6e7472616374206973206e6f74206960448201527f6e697469616c697a696e67000000000000000000000000000000000000000000606482015260840161078d565b611c47816040518060400160405280600181526020017f31000000000000000000000000000000000000000000000000000000000000008152506126fd565b50565b60075462010000900460ff16611ce2576040517f08c379a000000000000000000000000000000000000000000000000000000000815260206004820152602b60248201527f496e697469616c697a61626c653a20636f6e7472616374206973206e6f74206960448201527f6e697469616c697a696e67000000000000000000000000000000000000000000606482015260840161078d565b565b610f328282611d48565b600082815260d86020526040808220600101805490849055905190918391839186917fbd79b86ffe0ab8e8776151514217cd7cacd52c909f66475c3af44e129f0b00ff9190a4505050565b611d4281610c08565b60025550565b600082815260d86020908152604080832073ffffffffffffffffffffffffffffffffffffffff8516845290915290205460ff16610f3257600082815260d86020908152604080832073ffffffffffffffffffffffffffffffffffffffff85168452909152902080547fffffffffffffffffffffffffffffffffffffffffffffffffffffffffffffff00166001179055611dde3390565b73ffffffffffffffffffffffffffffffffffffffff168173ffffffffffffffffffffffffffffffffffffffff16837f2f8788117e7eff1d82e926ec794901d17c78024a50270940304540a733656f0d60405160405180910390a45050565b6000610e7e7f8b73c3c69bb8fe3d512ecc4cf759cc79239f7b179b0ffacaa9a75d522b39400f611e6b603f5490565b6040805481516020808201959095528083019390935260608301524660808301523060a0808401919091528151808403909101815260c09092019052805191012090565b600082815260d86020908152604080832073ffffffffffffffffffffffffffffffffffffffff8516845290915290205460ff1615610f3257600082815260d86020908152604080832073ffffffffffffffffffffffffffffffffffffffff8516808552925280832080547fffffffffffffffffffffffffffffffffffffffffffffffffffffffffffffff0016905551339285917ff6391f5c32d9c69d2a47ea670b442974b53935d1edc7fd64eb21e047a839171b9190a45050565b73ffffffffffffffffffffffffffffffffffffffff8216611fe7576040517f08c379a000000000000000000000000000000000000000000000000000000000815260206004820152601860248201527f4d696e7420746f20746865207a65726f20616464726573730000000000000000604482015260640161078d565b600060045482611ff7919061317b565b73ffffffffffffffffffffffffffffffffffffffff841660009081526006602052604090205490915061202b908290612fab565b73ffffffffffffffffffffffffffffffffffffffff841660009081526006602052604090205560055461205f908290612fab565b600555603c54612070908390612fab565b603c8190556fffffffffffffffffffffffffffffffff116120ed576040517f08c379a000000000000000000000000000000000000000000000000000000000815260206004820152600a60248201527f4d617820737570706c7900000000000000000000000000000000000000000000604482015260640161078d565b60405182815273ffffffffffffffffffffffffffffffffffffffff8416906000907fddf252ad1be2c89b69c2b068fc378daa952ba7f163c4a11628f55a4df523b3ef90602001611ac1565b73ffffffffffffffffffffffffffffffffffffffff82166121b5576040517f08c379a000000000000000000000000000000000000000000000000000000000815260206004820152601a60248201527f4275726e2066726f6d20746865207a65726f2061646472657373000000000000604482015260640161078d565b806121be575050565b6000600454826121ce919061317b565b73ffffffffffffffffffffffffffffffffffffffff841660009081526006602052604090205490915081811015612261576040517f08c379a000000000000000000000000000000000000000000000000000000000815260206004820152601260248201527f4e6f7420656e6f7567682062616c616e63650000000000000000000000000000604482015260640161078d565b73ffffffffffffffffffffffffffffffffffffffff84166000908152600660205260409020546122929083906131b8565b73ffffffffffffffffffffffffffffffffffffffff85166000908152600660205260409020556005546122c69083906131b8565b600555603c546122d79084906131b8565b603c5560405183815260009073ffffffffffffffffffffffffffffffffffffffff8616907fddf252ad1be2c89b69c2b068fc378daa952ba7f163c4a11628f55a4df523b3ef9060200160405180910390a350505050565b73ffffffffffffffffffffffffffffffffffffffff811660009081526073602052604090208054600181018255905b50919050565b60006106f6612370611e3c565b836040517f19010000000000000000000000000000000000000000000000000000000000006020820152602281018390526042810182905260009060620160405160208183030381529060405280519060200120905092915050565b60008060006123dd878787876127af565b915091506123ea816128c7565b5095945050505050565b6060600061240383600261317b565b61240e906002612fab565b67ffffffffffffffff81111561242657612426612ced565b6040519080825280601f01601f191660200182016040528015612450576020820181803683370190505b5090507f30000000000000000000000000000000000000000000000000000000000000008160008151811061248757612487613250565b60200101907effffffffffffffffffffffffffffffffffffffffffffffffffffffffffffff1916908160001a9053507f7800000000000000000000000000000000000000000000000000000000000000816001815181106124ea576124ea613250565b60200101907effffffffffffffffffffffffffffffffffffffffffffffffffffffffffffff1916908160001a905350600061252684600261317b565b612531906001612fab565b90505b60018111156125ce577f303132333435363738396162636465660000000000000000000000000000000085600f166010811061257257612572613250565b1a60f81b82828151811061258857612588613250565b60200101907effffffffffffffffffffffffffffffffffffffffffffffffffffffffffffff1916908160001a90535060049490941c936125c78161327f565b9050612534565b508315612637576040517f08c379a000000000000000000000000000000000000000000000000000000000815260206004820181905260248201527f537472696e67733a20686578206c656e67746820696e73756666696369656e74604482015260640161078d565b9392505050565b60075462010000900460ff166126d6576040517f08c379a000000000000000000000000000000000000000000000000000000000815260206004820152602b60248201527f496e697469616c697a61626c653a20636f6e7472616374206973206e6f74206960448201527f6e697469616c697a696e67000000000000000000000000000000000000000000606482015260840161078d565b81516126e990603d906020850190612b20565b508051610e6f90603e906020840190612b20565b60075462010000900460ff16612795576040517f08c379a000000000000000000000000000000000000000000000000000000000815260206004820152602b60248201527f496e697469616c697a61626c653a20636f6e7472616374206973206e6f74206960448201527f6e697469616c697a696e67000000000000000000000000000000000000000000606482015260840161078d565b815160209283012081519190920120603f91909155604055565b6000807f7fffffffffffffffffffffffffffffff5d576e7357a4501ddfe92f46681b20a08311156127e657506000905060036128be565b8460ff16601b141580156127fe57508460ff16601c14155b1561280f57506000905060046128be565b6040805160008082526020820180845289905260ff881692820192909252606081018690526080810185905260019060a0016020604051602081039080840390855afa158015612863573d6000803e3d6000fd5b50506040517fffffffffffffffffffffffffffffffffffffffffffffffffffffffffffffffe0015191505073ffffffffffffffffffffffffffffffffffffffff81166128b7576000600192509250506128be565b9150600090505b94509492505050565b60008160048111156128db576128db6132b4565b14156128e45750565b60018160048111156128f8576128f86132b4565b1415612960576040517f08c379a000000000000000000000000000000000000000000000000000000000815260206004820152601860248201527f45434453413a20696e76616c6964207369676e61747572650000000000000000604482015260640161078d565b6002816004811115612974576129746132b4565b14156129dc576040517f08c379a000000000000000000000000000000000000000000000000000000000815260206004820152601f60248201527f45434453413a20696e76616c6964207369676e6174757265206c656e67746800604482015260640161078d565b60038160048111156129f0576129f06132b4565b1415612a7e576040517f08c379a000000000000000000000000000000000000000000000000000000000815260206004820152602260248201527f45434453413a20696e76616c6964207369676e6174757265202773272076616c60448201527f7565000000000000000000000000000000000000000000000000000000000000606482015260840161078d565b6004816004811115612a9257612a926132b4565b1415611c47576040517f08c379a000000000000000000000000000000000000000000000000000000000815260206004820152602260248201527f45434453413a20696e76616c6964207369676e6174757265202776272076616c60448201527f7565000000000000000000000000000000000000000000000000000000000000606482015260840161078d565b828054612b2c90612ffe565b90600052602060002090601f016020900481019282612b4e5760008555612b94565b82601f10612b6757805160ff1916838001178555612b94565b82800160010185558215612b94579182015b82811115612b94578251825591602001919060010190612b79565b50612ba0929150612ba4565b5090565b5b80821115612ba05760008155600101612ba5565b600060208284031215612bcb57600080fd5b81357fffffffff000000000000000000000000000000000000000000000000000000008116811461263757600080fd5b60008060408385031215612c0e57600080fd5b50508035926020909101359150565b60005b83811015612c38578181015183820152602001612c20565b838111156108e35750506000910152565b6020815260008251806020840152612c68816040850160208701612c1d565b601f017fffffffffffffffffffffffffffffffffffffffffffffffffffffffffffffffe0169190910160400192915050565b803573ffffffffffffffffffffffffffffffffffffffff81168114612cbe57600080fd5b919050565b60008060408385031215612cd657600080fd5b612cdf83612c9a565b946020939093013593505050565b7f4e487b7100000000000000000000000000000000000000000000000000000000600052604160045260246000fd5b600082601f830112612d2d57600080fd5b813567ffffffffffffffff80821115612d4857612d48612ced565b604051601f83017fffffffffffffffffffffffffffffffffffffffffffffffffffffffffffffffe0908116603f01168101908282118183101715612d8e57612d8e612ced565b81604052838152866020858801011115612da757600080fd5b836020870160208301376000602085830101528094505050505092915050565b803560ff81168114612cbe57600080fd5b600080600060608486031215612ded57600080fd5b833567ffffffffffffffff80821115612e0557600080fd5b612e1187838801612d1c565b94506020860135915080821115612e2757600080fd5b50612e3486828701612d1c565b925050612e4360408501612dc7565b90509250925092565b600060208284031215612e5e57600080fd5b5035919050565b600080600060608486031215612e7a57600080fd5b612e8384612c9a565b9250612e9160208501612c9a565b9150604084013590509250925092565b60008060408385031215612eb457600080fd5b82359150612ec460208401612c9a565b90509250929050565b600060208284031215612edf57600080fd5b61263782612c9a565b600080600080600080600060e0888a031215612f0357600080fd5b612f0c88612c9a565b9650612f1a60208901612c9a565b95506040880135945060608801359350612f3660808901612dc7565b925060a0880135915060c0880135905092959891949750929550565b60008060408385031215612f6557600080fd5b612f6e83612c9a565b9150612ec460208401612c9a565b7f4e487b7100000000000000000000000000000000000000000000000000000000600052601160045260246000fd5b60008219821115612fbe57612fbe612f7c565b500190565b600082612ff9577f4e487b7100000000000000000000000000000000000000000000000000000000600052601260045260246000fd5b500490565b600181811c9082168061301257607f821691505b6020821081141561235d577f4e487b7100000000000000000000000000000000000000000000000000000000600052602260045260246000fd5b600181815b808511156130a557817fffffffffffffffffffffffffffffffffffffffffffffffffffffffffffffffff0482111561308b5761308b612f7c565b8085161561309857918102915b93841c9390800290613051565b509250929050565b6000826130bc575060016106f6565b816130c9575060006106f6565b81600181146130df57600281146130e957613105565b60019150506106f6565b60ff8411156130fa576130fa612f7c565b50506001821b6106f6565b5060208310610133831016604e8410600b8410161715613128575081810a6106f6565b613132838361304c565b807fffffffffffffffffffffffffffffffffffffffffffffffffffffffffffffffff0482111561316457613164612f7c565b029392505050565b600061263760ff8416836130ad565b6000817fffffffffffffffffffffffffffffffffffffffffffffffffffffffffffffffff04831182151516156131b3576131b3612f7c565b500290565b6000828210156131ca576131ca612f7c565b500390565b7f416363657373436f6e74726f6c3a206163636f756e7420000000000000000000815260008351613207816017850160208801612c1d565b7f206973206d697373696e6720726f6c65200000000000000000000000000000006017918401918201528351613244816028840160208801612c1d565b01602801949350505050565b7f4e487b7100000000000000000000000000000000000000000000000000000000600052603260045260246000fd5b60008161328e5761328e612f7c565b507fffffffffffffffffffffffffffffffffffffffffffffffffffffffffffffffff0190565b7f4e487b7100000000000000000000000000000000000000000000000000000000600052602160045260246000fdfea26469706673582212201292b363fb385aed1861d703c80ecda7906d8449cb50adf6340febff1eefd76064736f6c63430008090033",
  "linkReferences": {},
  "deployedLinkReferences": {}
}