{
  "_format": "hh-sol-artifact-1",
  "contractName": "YieldyV2Test",
  "sourceName": "src/contracts/test/YieldyUpgradeTest.sol",
  "abi": [
    {
      "anonymous": false,
      "inputs": [
        {
          "indexed": true,
          "internalType": "address",
          "name": "owner",
          "type": "address"
        },
        {
          "indexed": true,
          "internalType": "address",
          "name": "spender",
          "type": "address"
        },
        {
          "indexed": false,
          "internalType": "uint256",
          "name": "value",
          "type": "uint256"
        }
      ],
      "name": "Approval",
      "type": "event"
    },
    {
      "anonymous": false,
      "inputs": [
        {
          "indexed": true,
          "internalType": "uint256",
          "name": "epoch",
          "type": "uint256"
        },
        {
          "indexed": false,
          "internalType": "uint256",
          "name": "rebase",
          "type": "uint256"
        },
        {
          "indexed": false,
          "internalType": "uint256",
          "name": "index",
          "type": "uint256"
        }
      ],
      "name": "LogRebase",
      "type": "event"
    },
    {
      "anonymous": false,
      "inputs": [
        {
          "indexed": true,
          "internalType": "uint256",
          "name": "epoch",
          "type": "uint256"
        },
        {
          "indexed": false,
          "internalType": "uint256",
          "name": "timestamp",
          "type": "uint256"
        },
        {
          "indexed": false,
          "internalType": "uint256",
          "name": "totalSupply",
          "type": "uint256"
        }
      ],
      "name": "LogSupply",
      "type": "event"
    },
    {
      "anonymous": false,
      "inputs": [
        {
          "indexed": true,
          "internalType": "bytes32",
          "name": "role",
          "type": "bytes32"
        },
        {
          "indexed": true,
          "internalType": "bytes32",
          "name": "previousAdminRole",
          "type": "bytes32"
        },
        {
          "indexed": true,
          "internalType": "bytes32",
          "name": "newAdminRole",
          "type": "bytes32"
        }
      ],
      "name": "RoleAdminChanged",
      "type": "event"
    },
    {
      "anonymous": false,
      "inputs": [
        {
          "indexed": true,
          "internalType": "bytes32",
          "name": "role",
          "type": "bytes32"
        },
        {
          "indexed": true,
          "internalType": "address",
          "name": "account",
          "type": "address"
        },
        {
          "indexed": true,
          "internalType": "address",
          "name": "sender",
          "type": "address"
        }
      ],
      "name": "RoleGranted",
      "type": "event"
    },
    {
      "anonymous": false,
      "inputs": [
        {
          "indexed": true,
          "internalType": "bytes32",
          "name": "role",
          "type": "bytes32"
        },
        {
          "indexed": true,
          "internalType": "address",
          "name": "account",
          "type": "address"
        },
        {
          "indexed": true,
          "internalType": "address",
          "name": "sender",
          "type": "address"
        }
      ],
      "name": "RoleRevoked",
      "type": "event"
    },
    {
      "anonymous": false,
      "inputs": [
        {
          "indexed": true,
          "internalType": "address",
          "name": "from",
          "type": "address"
        },
        {
          "indexed": true,
          "internalType": "address",
          "name": "to",
          "type": "address"
        },
        {
          "indexed": false,
          "internalType": "uint256",
          "name": "value",
          "type": "uint256"
        }
      ],
      "name": "Transfer",
      "type": "event"
    },
    {
      "inputs": [],
      "name": "ADMIN_ROLE",
      "outputs": [
        {
          "internalType": "bytes32",
          "name": "",
          "type": "bytes32"
        }
      ],
      "stateMutability": "view",
      "type": "function"
    },
    {
      "inputs": [],
      "name": "DEFAULT_ADMIN_ROLE",
      "outputs": [
        {
          "internalType": "bytes32",
          "name": "",
          "type": "bytes32"
        }
      ],
      "stateMutability": "view",
      "type": "function"
    },
    {
      "inputs": [],
      "name": "DOMAIN_SEPARATOR",
      "outputs": [
        {
          "internalType": "bytes32",
          "name": "",
          "type": "bytes32"
        }
      ],
      "stateMutability": "view",
      "type": "function"
    },
    {
      "inputs": [],
      "name": "MINTER_BURNER_ROLE",
      "outputs": [
        {
          "internalType": "bytes32",
          "name": "",
          "type": "bytes32"
        }
      ],
      "stateMutability": "view",
      "type": "function"
    },
    {
      "inputs": [],
      "name": "REBASE_ROLE",
      "outputs": [
        {
          "internalType": "bytes32",
          "name": "",
          "type": "bytes32"
        }
      ],
      "stateMutability": "view",
      "type": "function"
    },
    {
      "inputs": [
        {
          "internalType": "address",
          "name": "owner",
          "type": "address"
        },
        {
          "internalType": "address",
          "name": "spender",
          "type": "address"
        }
      ],
      "name": "allowance",
      "outputs": [
        {
          "internalType": "uint256",
          "name": "",
          "type": "uint256"
        }
      ],
      "stateMutability": "view",
      "type": "function"
    },
    {
      "inputs": [
        {
          "internalType": "address",
          "name": "spender",
          "type": "address"
        },
        {
          "internalType": "uint256",
          "name": "amount",
          "type": "uint256"
        }
      ],
      "name": "approve",
      "outputs": [
        {
          "internalType": "bool",
          "name": "",
          "type": "bool"
        }
      ],
      "stateMutability": "nonpayable",
      "type": "function"
    },
    {
      "inputs": [
        {
          "internalType": "address",
          "name": "_wallet",
          "type": "address"
        }
      ],
      "name": "balanceOf",
      "outputs": [
        {
          "internalType": "uint256",
          "name": "",
          "type": "uint256"
        }
      ],
      "stateMutability": "view",
      "type": "function"
    },
    {
      "inputs": [
        {
          "internalType": "address",
          "name": "_address",
          "type": "address"
        },
        {
          "internalType": "uint256",
          "name": "_amount",
          "type": "uint256"
        }
      ],
      "name": "burn",
      "outputs": [],
      "stateMutability": "nonpayable",
      "type": "function"
    },
    {
      "inputs": [
        {
          "internalType": "address",
          "name": "",
          "type": "address"
        }
      ],
      "name": "creditBalances",
      "outputs": [
        {
          "internalType": "uint256",
          "name": "",
          "type": "uint256"
        }
      ],
      "stateMutability": "view",
      "type": "function"
    },
    {
      "inputs": [
        {
          "internalType": "uint256",
          "name": "_amount",
          "type": "uint256"
        }
      ],
      "name": "creditsForTokenBalance",
      "outputs": [
        {
          "internalType": "uint256",
          "name": "",
          "type": "uint256"
        }
      ],
      "stateMutability": "view",
      "type": "function"
    },
    {
      "inputs": [],
      "name": "decimals",
      "outputs": [
        {
          "internalType": "uint8",
          "name": "",
          "type": "uint8"
        }
      ],
      "stateMutability": "view",
      "type": "function"
    },
    {
      "inputs": [
        {
          "internalType": "address",
          "name": "spender",
          "type": "address"
        },
        {
          "internalType": "uint256",
          "name": "subtractedValue",
          "type": "uint256"
        }
      ],
      "name": "decreaseAllowance",
      "outputs": [
        {
          "internalType": "bool",
          "name": "",
          "type": "bool"
        }
      ],
      "stateMutability": "nonpayable",
      "type": "function"
    },
    {
      "inputs": [],
      "name": "getIndex",
      "outputs": [
        {
          "internalType": "uint256",
          "name": "",
          "type": "uint256"
        }
      ],
      "stateMutability": "view",
      "type": "function"
    },
    {
      "inputs": [
        {
          "internalType": "bytes32",
          "name": "role",
          "type": "bytes32"
        }
      ],
      "name": "getRoleAdmin",
      "outputs": [
        {
          "internalType": "bytes32",
          "name": "",
          "type": "bytes32"
        }
      ],
      "stateMutability": "view",
      "type": "function"
    },
    {
      "inputs": [
        {
          "internalType": "bytes32",
          "name": "role",
          "type": "bytes32"
        },
        {
          "internalType": "address",
          "name": "account",
          "type": "address"
        }
      ],
      "name": "grantRole",
      "outputs": [],
      "stateMutability": "nonpayable",
      "type": "function"
    },
    {
      "inputs": [
        {
          "internalType": "bytes32",
          "name": "role",
          "type": "bytes32"
        },
        {
          "internalType": "address",
          "name": "account",
          "type": "address"
        }
      ],
      "name": "hasRole",
      "outputs": [
        {
          "internalType": "bool",
          "name": "",
          "type": "bool"
        }
      ],
      "stateMutability": "view",
      "type": "function"
    },
    {
      "inputs": [
        {
          "internalType": "address",
          "name": "spender",
          "type": "address"
        },
        {
          "internalType": "uint256",
          "name": "addedValue",
          "type": "uint256"
        }
      ],
      "name": "increaseAllowance",
      "outputs": [
        {
          "internalType": "bool",
          "name": "",
          "type": "bool"
        }
      ],
      "stateMutability": "nonpayable",
      "type": "function"
    },
    {
      "inputs": [],
      "name": "index",
      "outputs": [
        {
          "internalType": "uint256",
          "name": "",
          "type": "uint256"
        }
      ],
      "stateMutability": "view",
      "type": "function"
    },
    {
      "inputs": [
        {
          "internalType": "string",
          "name": "_tokenName",
          "type": "string"
        },
        {
          "internalType": "string",
          "name": "_tokenSymbol",
          "type": "string"
        },
        {
          "internalType": "uint8",
          "name": "_decimal",
          "type": "uint8"
        }
      ],
      "name": "initialize",
      "outputs": [],
      "stateMutability": "nonpayable",
      "type": "function"
    },
    {
      "inputs": [
        {
          "internalType": "address",
          "name": "_stakingContract",
          "type": "address"
        }
      ],
      "name": "initializeStakingContract",
      "outputs": [],
      "stateMutability": "nonpayable",
      "type": "function"
    },
    {
      "inputs": [
        {
          "internalType": "address",
          "name": "_address",
          "type": "address"
        },
        {
          "internalType": "uint256",
          "name": "_amount",
          "type": "uint256"
        }
      ],
      "name": "mint",
      "outputs": [],
      "stateMutability": "nonpayable",
      "type": "function"
    },
    {
      "inputs": [],
      "name": "name",
      "outputs": [
        {
          "internalType": "string",
          "name": "",
          "type": "string"
        }
      ],
      "stateMutability": "view",
      "type": "function"
    },
    {
      "inputs": [],
      "name": "newFunction",
      "outputs": [
        {
          "internalType": "uint256",
          "name": "",
          "type": "uint256"
        }
      ],
      "stateMutability": "pure",
      "type": "function"
    },
    {
      "inputs": [
        {
          "internalType": "address",
          "name": "owner",
          "type": "address"
        }
      ],
      "name": "nonces",
      "outputs": [
        {
          "internalType": "uint256",
          "name": "",
          "type": "uint256"
        }
      ],
      "stateMutability": "view",
      "type": "function"
    },
    {
      "inputs": [
        {
          "internalType": "address",
          "name": "owner",
          "type": "address"
        },
        {
          "internalType": "address",
          "name": "spender",
          "type": "address"
        },
        {
          "internalType": "uint256",
          "name": "value",
          "type": "uint256"
        },
        {
          "internalType": "uint256",
          "name": "deadline",
          "type": "uint256"
        },
        {
          "internalType": "uint8",
          "name": "v",
          "type": "uint8"
        },
        {
          "internalType": "bytes32",
          "name": "r",
          "type": "bytes32"
        },
        {
          "internalType": "bytes32",
          "name": "s",
          "type": "bytes32"
        }
      ],
      "name": "permit",
      "outputs": [],
      "stateMutability": "nonpayable",
      "type": "function"
    },
    {
      "inputs": [
        {
          "internalType": "uint256",
          "name": "_profit",
          "type": "uint256"
        },
        {
          "internalType": "uint256",
          "name": "_epoch",
          "type": "uint256"
        }
      ],
      "name": "rebase",
      "outputs": [],
      "stateMutability": "nonpayable",
      "type": "function"
    },
    {
      "inputs": [
        {
          "internalType": "uint256",
          "name": "",
          "type": "uint256"
        }
      ],
      "name": "rebases",
      "outputs": [
        {
          "internalType": "uint256",
          "name": "epoch",
          "type": "uint256"
        },
        {
          "internalType": "uint256",
          "name": "rebase",
          "type": "uint256"
        },
        {
          "internalType": "uint256",
          "name": "totalStakedBefore",
          "type": "uint256"
        },
        {
          "internalType": "uint256",
          "name": "totalStakedAfter",
          "type": "uint256"
        },
        {
          "internalType": "uint256",
          "name": "amountRebased",
          "type": "uint256"
        },
        {
          "internalType": "uint256",
          "name": "index",
          "type": "uint256"
        },
        {
          "internalType": "uint256",
          "name": "blockNumberOccurred",
          "type": "uint256"
        }
      ],
      "stateMutability": "view",
      "type": "function"
    },
    {
      "inputs": [],
      "name": "rebasingCredits",
      "outputs": [
        {
          "internalType": "uint256",
          "name": "",
          "type": "uint256"
        }
      ],
      "stateMutability": "view",
      "type": "function"
    },
    {
      "inputs": [],
      "name": "rebasingCreditsPerToken",
      "outputs": [
        {
          "internalType": "uint256",
          "name": "",
          "type": "uint256"
        }
      ],
      "stateMutability": "view",
      "type": "function"
    },
    {
      "inputs": [
        {
          "internalType": "bytes32",
          "name": "role",
          "type": "bytes32"
        },
        {
          "internalType": "address",
          "name": "account",
          "type": "address"
        }
      ],
      "name": "renounceRole",
      "outputs": [],
      "stateMutability": "nonpayable",
      "type": "function"
    },
    {
      "inputs": [
        {
          "internalType": "bytes32",
          "name": "role",
          "type": "bytes32"
        },
        {
          "internalType": "address",
          "name": "account",
          "type": "address"
        }
      ],
      "name": "revokeRole",
      "outputs": [],
      "stateMutability": "nonpayable",
      "type": "function"
    },
    {
      "inputs": [],
      "name": "stakingContract",
      "outputs": [
        {
          "internalType": "address",
          "name": "",
          "type": "address"
        }
      ],
      "stateMutability": "view",
      "type": "function"
    },
    {
      "inputs": [
        {
          "internalType": "bytes4",
          "name": "interfaceId",
          "type": "bytes4"
        }
      ],
      "name": "supportsInterface",
      "outputs": [
        {
          "internalType": "bool",
          "name": "",
          "type": "bool"
        }
      ],
      "stateMutability": "view",
      "type": "function"
    },
    {
      "inputs": [],
      "name": "symbol",
      "outputs": [
        {
          "internalType": "string",
          "name": "",
          "type": "string"
        }
      ],
      "stateMutability": "view",
      "type": "function"
    },
    {
      "inputs": [
        {
          "internalType": "uint256",
          "name": "_credits",
          "type": "uint256"
        }
      ],
      "name": "tokenBalanceForCredits",
      "outputs": [
        {
          "internalType": "uint256",
          "name": "",
          "type": "uint256"
        }
      ],
      "stateMutability": "view",
      "type": "function"
    },
    {
      "inputs": [],
      "name": "totalSupply",
      "outputs": [
        {
          "internalType": "uint256",
          "name": "",
          "type": "uint256"
        }
      ],
      "stateMutability": "view",
      "type": "function"
    },
    {
      "inputs": [
        {
          "internalType": "address",
          "name": "_to",
          "type": "address"
        },
        {
          "internalType": "uint256",
          "name": "_value",
          "type": "uint256"
        }
      ],
      "name": "transfer",
      "outputs": [
        {
          "internalType": "bool",
          "name": "",
          "type": "bool"
        }
      ],
      "stateMutability": "nonpayable",
      "type": "function"
    },
    {
      "inputs": [
        {
          "internalType": "address",
          "name": "_from",
          "type": "address"
        },
        {
          "internalType": "address",
          "name": "_to",
          "type": "address"
        },
        {
          "internalType": "uint256",
          "name": "_value",
          "type": "uint256"
        }
      ],
      "name": "transferFrom",
      "outputs": [
        {
          "internalType": "bool",
          "name": "",
          "type": "bool"
        }
      ],
      "stateMutability": "nonpayable",
      "type": "function"
    }
  ],
  "bytecode": "0x608060405234801561001057600080fd5b5061333d806100206000396000f3fe608060405234801561001057600080fd5b50600436106102ad5760003560e01c80636691cb3d1161017b5780639dc29fac116100d8578063d505accf1161008c578063dd62ed3e11610071578063dd62ed3e146105d5578063edaefc311461061b578063ee99205c1461064257600080fd5b8063d505accf146105af578063d547741f146105c257600080fd5b8063a457c2d7116100bd578063a457c2d714610576578063a9059cbb14610589578063bcc5ceca1461059c57600080fd5b80639dc29fac1461055b578063a217fddf1461056e57600080fd5b80637ecebe001161012f57806391d148541161011457806391d14854146104fa57806392386fb51461054057806395d89b411461055357600080fd5b80637ecebe00146104df57806381045ead146104f257600080fd5b806372c328601161016057806372c328601461044957806373c69eb71461047057806375b238fc146104b857600080fd5b80636691cb3d1461042d57806370a082311461043657600080fd5b806323b872dd116102295780633644e515116101dd57806339509351116101c257806339509351146103e757806340c10f19146103fa5780636009a2d81461040d57600080fd5b80633644e515146103cc57806336568abe146103d457600080fd5b80632986c0e51161020e5780632986c0e51461039b5780632f2ff15d146103a4578063313ce567146103b757600080fd5b806323b872dd14610365578063248a9ca31461037857600080fd5b8063095ea7b31161028057806318160ddd1161026557806318160ddd146103415780631b28d63e1461034957806320eed4291461035257600080fd5b8063095ea7b31461031b5780631624f6c61461032e57600080fd5b806301ffc9a7146102b2578063058ecdb4146102da57806306fdde03146102ef578063077f22b714610304575b600080fd5b6102c56102c0366004612bdd565b610687565b60405190151581526020015b60405180910390f35b6102ed6102e8366004612c1f565b610720565b005b6102f761090d565b6040516102d19190612c6d565b61030d60055481565b6040519081526020016102d1565b6102c5610329366004612ce7565b61099f565b6102ed61033c366004612dfc565b6109b5565b603c5461030d565b6276adf161030d565b61030d610360366004612e70565b610c2c565b6102c5610373366004612e89565b610c3c565b61030d610386366004612e70565b600090815260d8602052604090206001015490565b61030d60025481565b6102ed6103b2366004612ec5565b610e6d565b60075460405160ff90911681526020016102d1565b61030d610e98565b6102ed6103e2366004612ec5565b610ea7565b6102c56103f5366004612ce7565b610f5a565b6102ed610408366004612ce7565b610fa3565b61030d61041b366004612ef1565b60066020526000908152604090205481565b61030d60045481565b61030d610444366004612ef1565b610fd8565b61030d7fcfd53186d792f1ec9d0679afc2dc3ffc86fc31fe1e0f342b838eb6c3eade62b381565b61048361047e366004612e70565b61100c565b604080519788526020880196909652948601939093526060850191909152608084015260a083015260c082015260e0016102d1565b61030d7fdf8b4c520ffe197c5343c6f5aec59570151ef9a492f2c624fd45ddde6135ec4281565b61030d6104ed366004612ef1565b61105e565b61030d611089565b6102c5610508366004612ec5565b600091825260d86020908152604080842073ffffffffffffffffffffffffffffffffffffffff93909316845291905290205460ff1690565b61030d61054e366004612e70565b611092565b6102f76110a2565b6102ed610569366004612ce7565b6110b1565b61030d600081565b6102c5610584366004612ce7565b6110e6565b6102c5610597366004612ce7565b6111be565b6102ed6105aa366004612ef1565b61138e565b6102ed6105bd366004612f0c565b61154a565b6102ed6105d0366004612ec5565b611709565b61030d6105e3366004612f76565b73ffffffffffffffffffffffffffffffffffffffff9182166000908152603b6020908152604080832093909416825291909152205490565b61030d7f2cb8fee3430f011f8ea5df36a120dd5a293aa25c9ca88cc51159a94f41f768bb81565b6000546106629073ffffffffffffffffffffffffffffffffffffffff1681565b60405173ffffffffffffffffffffffffffffffffffffffff90911681526020016102d1565b60007fffffffff0000000000000000000000000000000000000000000000000000000082167f7965db0b00000000000000000000000000000000000000000000000000000000148061071a57507f01ffc9a7000000000000000000000000000000000000000000000000000000007fffffffff000000000000000000000000000000000000000000000000000000008316145b92915050565b7f2cb8fee3430f011f8ea5df36a120dd5a293aa25c9ca88cc51159a94f41f768bb61074b813361172f565b603c54806107ba576040517f08c379a000000000000000000000000000000000000000000000000000000000815260206004820152601f60248201527f43616e277420726562617365206966206e6f742063697263756c6174696e670060448201526064015b60405180910390fd5b8361084357604080514281526020810183905284917f917acfbe39be6509ccf7fecb66a7e42ce2be1083c2d7dd3b9b7491dabddb8da4910160405180910390a2827f6012dbce857565c4a40974aa5de8373a761fc429077ef0c8c8611d1e20d63fb26000610826611089565b6040805192835260208301919091520160405180910390a2610907565b600061084f8583612fcf565b90506fffffffffffffffffffffffffffffffff81111561087c57506fffffffffffffffffffffffffffffffff5b8060055461088a9190612fe7565b60048190556108f5576040517f08c379a000000000000000000000000000000000000000000000000000000000815260206004820152601860248201527f496e76616c6964206368616e676520696e20737570706c79000000000000000060448201526064016107b1565b603c819055610905818686611801565b505b50505050565b6060603d805461091c90613022565b80601f016020809104026020016040519081016040528092919081815260200182805461094890613022565b80156109955780601f1061096a57610100808354040283529160200191610995565b820191906000526020600020905b81548152906001019060200180831161097857829003601f168201915b5050505050905090565b60006109ac33848461193e565b50600192915050565b60075462010000900460ff166109d657600754610100900460ff16156109da565b303b155b610a66576040517f08c379a000000000000000000000000000000000000000000000000000000000815260206004820152602e60248201527f496e697469616c697a61626c653a20636f6e747261637420697320616c72656160448201527f647920696e697469616c697a656400000000000000000000000000000000000060648201526084016107b1565b60075462010000900460ff16158015610aa757600780547fffffffffffffffffffffffffffffffffffffffffffffffffffffffffff0000ff16620101001790555b610ab18484611af2565b610aba84611b94565b610ac2611c6e565b610aec7fdf8b4c520ffe197c5343c6f5aec59570151ef9a492f2c624fd45ddde6135ec4233611d08565b610b167fdf8b4c520ffe197c5343c6f5aec59570151ef9a492f2c624fd45ddde6135ec4280611d12565b610b607fcfd53186d792f1ec9d0679afc2dc3ffc86fc31fe1e0f342b838eb6c3eade62b37fdf8b4c520ffe197c5343c6f5aec59570151ef9a492f2c624fd45ddde6135ec42611d12565b610baa7f2cb8fee3430f011f8ea5df36a120dd5a293aa25c9ca88cc51159a94f41f768bb7fdf8b4c520ffe197c5343c6f5aec59570151ef9a492f2c624fd45ddde6135ec42611d12565b600780547fffffffffffffffffffffffffffffffffffffffffffffffffffffffffffffff001660ff8416908117909155610be590600a613190565b60038190556004819055610bf890611d5d565b801561090757600780547fffffffffffffffffffffffffffffffffffffffffffffffffffffffffff00ffff16905550505050565b60006004548261071a919061319f565b73ffffffffffffffffffffffffffffffffffffffff83166000908152603b60209081526040808320338452909152812054821115610cd6576040517f08c379a000000000000000000000000000000000000000000000000000000000815260206004820152601160248201527f416c6c6f77616e636520746f6f206c6f7700000000000000000000000000000060448201526064016107b1565b73ffffffffffffffffffffffffffffffffffffffff84166000908152603b60209081526040808320338452909152812054610d129084906131dc565b73ffffffffffffffffffffffffffffffffffffffff86166000818152603b6020908152604080832033808552908352928190208590555184815293945090927f8c5be1e5ebec7d5bd14f71427d1e84f3dd0314c0f7b2291e5b200ac8c7c3b925910160405180910390a36000610d8784610c2c565b73ffffffffffffffffffffffffffffffffffffffff8716600090815260066020526040902054909150610dbb9082906131dc565b73ffffffffffffffffffffffffffffffffffffffff8088166000908152600660205260408082209390935590871681522054610df8908290612fcf565b73ffffffffffffffffffffffffffffffffffffffff80871660008181526006602052604090819020939093559151908816907fddf252ad1be2c89b69c2b068fc378daa952ba7f163c4a11628f55a4df523b3ef90610e599088815260200190565b60405180910390a350600195945050505050565b600082815260d86020526040902060010154610e89813361172f565b610e938383611d6c565b505050565b6000610ea2611e60565b905090565b73ffffffffffffffffffffffffffffffffffffffff81163314610f4c576040517f08c379a000000000000000000000000000000000000000000000000000000000815260206004820152602f60248201527f416363657373436f6e74726f6c3a2063616e206f6e6c792072656e6f756e636560448201527f20726f6c657320666f722073656c66000000000000000000000000000000000060648201526084016107b1565b610f568282611ed3565b5050565b336000818152603b6020908152604080832073ffffffffffffffffffffffffffffffffffffffff8716845290915281205490916109ac918590610f9e908690612fcf565b61193e565b7fcfd53186d792f1ec9d0679afc2dc3ffc86fc31fe1e0f342b838eb6c3eade62b3610fce813361172f565b610e938383611f8e565b60045473ffffffffffffffffffffffffffffffffffffffff8216600090815260066020526040812054909161071a91612fe7565b6001818154811061101c57600080fd5b90600052602060002090600702016000915090508060000154908060010154908060020154908060030154908060040154908060050154908060060154905087565b73ffffffffffffffffffffffffffffffffffffffff811660009081526073602052604081205461071a565b6000610ea26002545b60006004548261071a9190612fe7565b6060603e805461091c90613022565b7fcfd53186d792f1ec9d0679afc2dc3ffc86fc31fe1e0f342b838eb6c3eade62b36110dc813361172f565b610e93838361215c565b336000908152603b6020908152604080832073ffffffffffffffffffffffffffffffffffffffff86168452909152812054828110156111a7576040517f08c379a000000000000000000000000000000000000000000000000000000000815260206004820152602560248201527f45524332303a2064656372656173656420616c6c6f77616e63652062656c6f7760448201527f207a65726f00000000000000000000000000000000000000000000000000000060648201526084016107b1565b6111b4338585840361193e565b5060019392505050565b600073ffffffffffffffffffffffffffffffffffffffff831661123d576040517f08c379a000000000000000000000000000000000000000000000000000000000815260206004820152600f60248201527f496e76616c69642061646472657373000000000000000000000000000000000060448201526064016107b1565b60006004548361124d919061319f565b336000908152600660205260409020549091508111156112c9576040517f08c379a000000000000000000000000000000000000000000000000000000000815260206004820152601060248201527f4e6f7420656e6f7567682066756e64730000000000000000000000000000000060448201526064016107b1565b336000908152600660205260409020546112e49082906131dc565b336000908152600660205260408082209290925573ffffffffffffffffffffffffffffffffffffffff86168152205461131e908290612fcf565b73ffffffffffffffffffffffffffffffffffffffff85166000818152600660205260409081902092909255905133907fddf252ad1be2c89b69c2b068fc378daa952ba7f163c4a11628f55a4df523b3ef9061137c9087815260200190565b60405180910390a35060019392505050565b7fdf8b4c520ffe197c5343c6f5aec59570151ef9a492f2c624fd45ddde6135ec426113b9813361172f565b60005473ffffffffffffffffffffffffffffffffffffffff1615611439576040517f08c379a000000000000000000000000000000000000000000000000000000000815260206004820152601360248201527f416c726561647920496e697469616c697a65640000000000000000000000000060448201526064016107b1565b73ffffffffffffffffffffffffffffffffffffffff82166114b6576040517f08c379a000000000000000000000000000000000000000000000000000000000815260206004820152600f60248201527f496e76616c69642061646472657373000000000000000000000000000000000060448201526064016107b1565b600080547fffffffffffffffffffffffff00000000000000000000000000000000000000001673ffffffffffffffffffffffffffffffffffffffff84161790556115207fcfd53186d792f1ec9d0679afc2dc3ffc86fc31fe1e0f342b838eb6c3eade62b383611d08565b610f567f2cb8fee3430f011f8ea5df36a120dd5a293aa25c9ca88cc51159a94f41f768bb83611d08565b834211156115b4576040517f08c379a000000000000000000000000000000000000000000000000000000000815260206004820152601d60248201527f45524332305065726d69743a206578706972656420646561646c696e6500000060448201526064016107b1565b60007f6e71edae12b1b97f4d1f60370fef10105fa2faae0126114a169c64845d6126c98888886115e38c612352565b60408051602081019690965273ffffffffffffffffffffffffffffffffffffffff94851690860152929091166060840152608083015260a082015260c0810186905260e001604051602081830303815290604052805190602001209050600061164b82612387565b9050600061165b828787876123f0565b90508973ffffffffffffffffffffffffffffffffffffffff168173ffffffffffffffffffffffffffffffffffffffff16146116f2576040517f08c379a000000000000000000000000000000000000000000000000000000000815260206004820152601e60248201527f45524332305065726d69743a20696e76616c6964207369676e6174757265000060448201526064016107b1565b6116fd8a8a8a61193e565b50505050505050505050565b600082815260d86020526040902060010154611725813361172f565b610e938383611ed3565b600082815260d86020908152604080832073ffffffffffffffffffffffffffffffffffffffff8516845290915290205460ff16610f56576117878173ffffffffffffffffffffffffffffffffffffffff166014612418565b611792836020612418565b6040516020016117a39291906131f3565b604080517fffffffffffffffffffffffffffffffffffffffffffffffffffffffffffffffe0818403018152908290527f08c379a00000000000000000000000000000000000000000000000000000000082526107b191600401612c6d565b60008360035484611812919061319f565b61181c9190612fe7565b905060016040518060e00160405280848152602001838152602001868152602001603c548152602001858152602001611853611089565b815243602091820152825460018082018555600094855293829020835160079092020190815582820151938101939093556040808301516002850155606083015160038501556080830151600485015560a0830151600585015560c090920151600690930192909255603c5481514281529283015283917f917acfbe39be6509ccf7fecb66a7e42ce2be1083c2d7dd3b9b7491dabddb8da4910160405180910390a2817f6012dbce857565c4a40974aa5de8373a761fc429077ef0c8c8611d1e20d63fb282611920611089565b6040805192835260208301919091520160405180910390a250505050565b73ffffffffffffffffffffffffffffffffffffffff83166119e0576040517f08c379a0000000000000000000000000000000000000000000000000000000008152602060048201526024808201527f45524332303a20617070726f76652066726f6d20746865207a65726f2061646460448201527f726573730000000000000000000000000000000000000000000000000000000060648201526084016107b1565b73ffffffffffffffffffffffffffffffffffffffff8216611a83576040517f08c379a000000000000000000000000000000000000000000000000000000000815260206004820152602260248201527f45524332303a20617070726f766520746f20746865207a65726f20616464726560448201527f737300000000000000000000000000000000000000000000000000000000000060648201526084016107b1565b73ffffffffffffffffffffffffffffffffffffffff8381166000818152603b602090815260408083209487168084529482529182902085905590518481527f8c5be1e5ebec7d5bd14f71427d1e84f3dd0314c0f7b2291e5b200ac8c7c3b92591015b60405180910390a3505050565b60075462010000900460ff16611b8a576040517f08c379a000000000000000000000000000000000000000000000000000000000815260206004820152602b60248201527f496e697469616c697a61626c653a20636f6e7472616374206973206e6f74206960448201527f6e697469616c697a696e6700000000000000000000000000000000000000000060648201526084016107b1565b610f568282612662565b60075462010000900460ff16611c2c576040517f08c379a000000000000000000000000000000000000000000000000000000000815260206004820152602b60248201527f496e697469616c697a61626c653a20636f6e7472616374206973206e6f74206960448201527f6e697469616c697a696e6700000000000000000000000000000000000000000060648201526084016107b1565b611c6b816040518060400160405280600181526020017f3100000000000000000000000000000000000000000000000000000000000000815250612721565b50565b60075462010000900460ff16611d06576040517f08c379a000000000000000000000000000000000000000000000000000000000815260206004820152602b60248201527f496e697469616c697a61626c653a20636f6e7472616374206973206e6f74206960448201527f6e697469616c697a696e6700000000000000000000000000000000000000000060648201526084016107b1565b565b610f568282611d6c565b600082815260d86020526040808220600101805490849055905190918391839186917fbd79b86ffe0ab8e8776151514217cd7cacd52c909f66475c3af44e129f0b00ff9190a4505050565b611d6681610c2c565b60025550565b600082815260d86020908152604080832073ffffffffffffffffffffffffffffffffffffffff8516845290915290205460ff16610f5657600082815260d86020908152604080832073ffffffffffffffffffffffffffffffffffffffff85168452909152902080547fffffffffffffffffffffffffffffffffffffffffffffffffffffffffffffff00166001179055611e023390565b73ffffffffffffffffffffffffffffffffffffffff168173ffffffffffffffffffffffffffffffffffffffff16837f2f8788117e7eff1d82e926ec794901d17c78024a50270940304540a733656f0d60405160405180910390a45050565b6000610ea27f8b73c3c69bb8fe3d512ecc4cf759cc79239f7b179b0ffacaa9a75d522b39400f611e8f603f5490565b6040805481516020808201959095528083019390935260608301524660808301523060a0808401919091528151808403909101815260c09092019052805191012090565b600082815260d86020908152604080832073ffffffffffffffffffffffffffffffffffffffff8516845290915290205460ff1615610f5657600082815260d86020908152604080832073ffffffffffffffffffffffffffffffffffffffff8516808552925280832080547fffffffffffffffffffffffffffffffffffffffffffffffffffffffffffffff0016905551339285917ff6391f5c32d9c69d2a47ea670b442974b53935d1edc7fd64eb21e047a839171b9190a45050565b73ffffffffffffffffffffffffffffffffffffffff821661200b576040517f08c379a000000000000000000000000000000000000000000000000000000000815260206004820152601860248201527f4d696e7420746f20746865207a65726f2061646472657373000000000000000060448201526064016107b1565b60006004548261201b919061319f565b73ffffffffffffffffffffffffffffffffffffffff841660009081526006602052604090205490915061204f908290612fcf565b73ffffffffffffffffffffffffffffffffffffffff8416600090815260066020526040902055600554612083908290612fcf565b600555603c54612094908390612fcf565b603c8190556fffffffffffffffffffffffffffffffff11612111576040517f08c379a000000000000000000000000000000000000000000000000000000000815260206004820152600a60248201527f4d617820737570706c790000000000000000000000000000000000000000000060448201526064016107b1565b60405182815273ffffffffffffffffffffffffffffffffffffffff8416906000907fddf252ad1be2c89b69c2b068fc378daa952ba7f163c4a11628f55a4df523b3ef90602001611ae5565b73ffffffffffffffffffffffffffffffffffffffff82166121d9576040517f08c379a000000000000000000000000000000000000000000000000000000000815260206004820152601a60248201527f4275726e2066726f6d20746865207a65726f206164647265737300000000000060448201526064016107b1565b806121e2575050565b6000600454826121f2919061319f565b73ffffffffffffffffffffffffffffffffffffffff841660009081526006602052604090205490915081811015612285576040517f08c379a000000000000000000000000000000000000000000000000000000000815260206004820152601260248201527f4e6f7420656e6f7567682062616c616e6365000000000000000000000000000060448201526064016107b1565b73ffffffffffffffffffffffffffffffffffffffff84166000908152600660205260409020546122b69083906131dc565b73ffffffffffffffffffffffffffffffffffffffff85166000908152600660205260409020556005546122ea9083906131dc565b600555603c546122fb9084906131dc565b603c5560405183815260009073ffffffffffffffffffffffffffffffffffffffff8616907fddf252ad1be2c89b69c2b068fc378daa952ba7f163c4a11628f55a4df523b3ef9060200160405180910390a350505050565b73ffffffffffffffffffffffffffffffffffffffff811660009081526073602052604090208054600181018255905b50919050565b600061071a612394611e60565b836040517f19010000000000000000000000000000000000000000000000000000000000006020820152602281018390526042810182905260009060620160405160208183030381529060405280519060200120905092915050565b6000806000612401878787876127d3565b9150915061240e816128eb565b5095945050505050565b6060600061242783600261319f565b612432906002612fcf565b67ffffffffffffffff81111561244a5761244a612d11565b6040519080825280601f01601f191660200182016040528015612474576020820181803683370190505b5090507f3000000000000000000000000000000000000000000000000000000000000000816000815181106124ab576124ab613274565b60200101907effffffffffffffffffffffffffffffffffffffffffffffffffffffffffffff1916908160001a9053507f78000000000000000000000000000000000000000000000000000000000000008160018151811061250e5761250e613274565b60200101907effffffffffffffffffffffffffffffffffffffffffffffffffffffffffffff1916908160001a905350600061254a84600261319f565b612555906001612fcf565b90505b60018111156125f2577f303132333435363738396162636465660000000000000000000000000000000085600f166010811061259657612596613274565b1a60f81b8282815181106125ac576125ac613274565b60200101907effffffffffffffffffffffffffffffffffffffffffffffffffffffffffffff1916908160001a90535060049490941c936125eb816132a3565b9050612558565b50831561265b576040517f08c379a000000000000000000000000000000000000000000000000000000000815260206004820181905260248201527f537472696e67733a20686578206c656e67746820696e73756666696369656e7460448201526064016107b1565b9392505050565b60075462010000900460ff166126fa576040517f08c379a000000000000000000000000000000000000000000000000000000000815260206004820152602b60248201527f496e697469616c697a61626c653a20636f6e7472616374206973206e6f74206960448201527f6e697469616c697a696e6700000000000000000000000000000000000000000060648201526084016107b1565b815161270d90603d906020850190612b44565b508051610e9390603e906020840190612b44565b60075462010000900460ff166127b9576040517f08c379a000000000000000000000000000000000000000000000000000000000815260206004820152602b60248201527f496e697469616c697a61626c653a20636f6e7472616374206973206e6f74206960448201527f6e697469616c697a696e6700000000000000000000000000000000000000000060648201526084016107b1565b815160209283012081519190920120603f91909155604055565b6000807f7fffffffffffffffffffffffffffffff5d576e7357a4501ddfe92f46681b20a083111561280a57506000905060036128e2565b8460ff16601b1415801561282257508460ff16601c14155b1561283357506000905060046128e2565b6040805160008082526020820180845289905260ff881692820192909252606081018690526080810185905260019060a0016020604051602081039080840390855afa158015612887573d6000803e3d6000fd5b50506040517fffffffffffffffffffffffffffffffffffffffffffffffffffffffffffffffe0015191505073ffffffffffffffffffffffffffffffffffffffff81166128db576000600192509250506128e2565b9150600090505b94509492505050565b60008160048111156128ff576128ff6132d8565b14156129085750565b600181600481111561291c5761291c6132d8565b1415612984576040517f08c379a000000000000000000000000000000000000000000000000000000000815260206004820152601860248201527f45434453413a20696e76616c6964207369676e6174757265000000000000000060448201526064016107b1565b6002816004811115612998576129986132d8565b1415612a00576040517f08c379a000000000000000000000000000000000000000000000000000000000815260206004820152601f60248201527f45434453413a20696e76616c6964207369676e6174757265206c656e6774680060448201526064016107b1565b6003816004811115612a1457612a146132d8565b1415612aa2576040517f08c379a000000000000000000000000000000000000000000000000000000000815260206004820152602260248201527f45434453413a20696e76616c6964207369676e6174757265202773272076616c60448201527f756500000000000000000000000000000000000000000000000000000000000060648201526084016107b1565b6004816004811115612ab657612ab66132d8565b1415611c6b576040517f08c379a000000000000000000000000000000000000000000000000000000000815260206004820152602260248201527f45434453413a20696e76616c6964207369676e6174757265202776272076616c60448201527f756500000000000000000000000000000000000000000000000000000000000060648201526084016107b1565b828054612b5090613022565b90600052602060002090601f016020900481019282612b725760008555612bb8565b82601f10612b8b57805160ff1916838001178555612bb8565b82800160010185558215612bb8579182015b82811115612bb8578251825591602001919060010190612b9d565b50612bc4929150612bc8565b5090565b5b80821115612bc45760008155600101612bc9565b600060208284031215612bef57600080fd5b81357fffffffff000000000000000000000000000000000000000000000000000000008116811461265b57600080fd5b60008060408385031215612c3257600080fd5b50508035926020909101359150565b60005b83811015612c5c578181015183820152602001612c44565b838111156109075750506000910152565b6020815260008251806020840152612c8c816040850160208701612c41565b601f017fffffffffffffffffffffffffffffffffffffffffffffffffffffffffffffffe0169190910160400192915050565b803573ffffffffffffffffffffffffffffffffffffffff81168114612ce257600080fd5b919050565b60008060408385031215612cfa57600080fd5b612d0383612cbe565b946020939093013593505050565b7f4e487b7100000000000000000000000000000000000000000000000000000000600052604160045260246000fd5b600082601f830112612d5157600080fd5b813567ffffffffffffffff80821115612d6c57612d6c612d11565b604051601f83017fffffffffffffffffffffffffffffffffffffffffffffffffffffffffffffffe0908116603f01168101908282118183101715612db257612db2612d11565b81604052838152866020858801011115612dcb57600080fd5b836020870160208301376000602085830101528094505050505092915050565b803560ff81168114612ce257600080fd5b600080600060608486031215612e1157600080fd5b833567ffffffffffffffff80821115612e2957600080fd5b612e3587838801612d40565b94506020860135915080821115612e4b57600080fd5b50612e5886828701612d40565b925050612e6760408501612deb565b90509250925092565b600060208284031215612e8257600080fd5b5035919050565b600080600060608486031215612e9e57600080fd5b612ea784612cbe565b9250612eb560208501612cbe565b9150604084013590509250925092565b60008060408385031215612ed857600080fd5b82359150612ee860208401612cbe565b90509250929050565b600060208284031215612f0357600080fd5b61265b82612cbe565b600080600080600080600060e0888a031215612f2757600080fd5b612f3088612cbe565b9650612f3e60208901612cbe565b95506040880135945060608801359350612f5a60808901612deb565b925060a0880135915060c0880135905092959891949750929550565b60008060408385031215612f8957600080fd5b612f9283612cbe565b9150612ee860208401612cbe565b7f4e487b7100000000000000000000000000000000000000000000000000000000600052601160045260246000fd5b60008219821115612fe257612fe2612fa0565b500190565b60008261301d577f4e487b7100000000000000000000000000000000000000000000000000000000600052601260045260246000fd5b500490565b600181811c9082168061303657607f821691505b60208210811415612381577f4e487b7100000000000000000000000000000000000000000000000000000000600052602260045260246000fd5b600181815b808511156130c957817fffffffffffffffffffffffffffffffffffffffffffffffffffffffffffffffff048211156130af576130af612fa0565b808516156130bc57918102915b93841c9390800290613075565b509250929050565b6000826130e05750600161071a565b816130ed5750600061071a565b8160018114613103576002811461310d57613129565b600191505061071a565b60ff84111561311e5761311e612fa0565b50506001821b61071a565b5060208310610133831016604e8410600b841016171561314c575081810a61071a565b6131568383613070565b807fffffffffffffffffffffffffffffffffffffffffffffffffffffffffffffffff0482111561318857613188612fa0565b029392505050565b600061265b60ff8416836130d1565b6000817fffffffffffffffffffffffffffffffffffffffffffffffffffffffffffffffff04831182151516156131d7576131d7612fa0565b500290565b6000828210156131ee576131ee612fa0565b500390565b7f416363657373436f6e74726f6c3a206163636f756e742000000000000000000081526000835161322b816017850160208801612c41565b7f206973206d697373696e6720726f6c65200000000000000000000000000000006017918401918201528351613268816028840160208801612c41565b01602801949350505050565b7f4e487b7100000000000000000000000000000000000000000000000000000000600052603260045260246000fd5b6000816132b2576132b2612fa0565b507fffffffffffffffffffffffffffffffffffffffffffffffffffffffffffffffff0190565b7f4e487b7100000000000000000000000000000000000000000000000000000000600052602160045260246000fdfea26469706673582212203aa1180cbaa8fa1b7789990c880f5f5b7e0072ef2a483b7a79e529e1429a006b64736f6c63430008090033",
  "linkReferences": {},
  "deployedLinkReferences": {}
}