{
  "_format": "hh-sol-artifact-1",
  "contractName": "LiquidityReserve",
  "sourceName": "src/contracts/LiquidityReserve.sol",
  "abi": [
    {
      "anonymous": false,
      "inputs": [
        {
          "indexed": true,
          "internalType": "address",
          "name": "owner",
          "type": "address"
        },
        {
          "indexed": true,
          "internalType": "address",
          "name": "spender",
          "type": "address"
        },
        {
          "indexed": false,
          "internalType": "uint256",
          "name": "value",
          "type": "uint256"
        }
      ],
      "name": "Approval",
      "type": "event"
    },
    {
      "anonymous": false,
      "inputs": [
        {
          "indexed": false,
          "internalType": "uint256",
          "name": "fee",
          "type": "uint256"
        }
      ],
      "name": "FeeChanged",
      "type": "event"
    },
    {
      "anonymous": false,
      "inputs": [
        {
          "indexed": true,
          "internalType": "address",
          "name": "previousOwner",
          "type": "address"
        },
        {
          "indexed": true,
          "internalType": "address",
          "name": "newOwner",
          "type": "address"
        }
      ],
      "name": "OwnershipTransferred",
      "type": "event"
    },
    {
      "anonymous": false,
      "inputs": [
        {
          "indexed": true,
          "internalType": "address",
          "name": "from",
          "type": "address"
        },
        {
          "indexed": true,
          "internalType": "address",
          "name": "to",
          "type": "address"
        },
        {
          "indexed": false,
          "internalType": "uint256",
          "name": "value",
          "type": "uint256"
        }
      ],
      "name": "Transfer",
      "type": "event"
    },
    {
      "inputs": [],
      "name": "BASIS_POINTS",
      "outputs": [
        {
          "internalType": "uint256",
          "name": "",
          "type": "uint256"
        }
      ],
      "stateMutability": "view",
      "type": "function"
    },
    {
      "inputs": [],
      "name": "MINIMUM_LIQUIDITY",
      "outputs": [
        {
          "internalType": "uint256",
          "name": "",
          "type": "uint256"
        }
      ],
      "stateMutability": "view",
      "type": "function"
    },
    {
      "inputs": [
        {
          "internalType": "uint256",
          "name": "_amount",
          "type": "uint256"
        }
      ],
      "name": "addLiquidity",
      "outputs": [],
      "stateMutability": "nonpayable",
      "type": "function"
    },
    {
      "inputs": [
        {
          "internalType": "address",
          "name": "owner",
          "type": "address"
        },
        {
          "internalType": "address",
          "name": "spender",
          "type": "address"
        }
      ],
      "name": "allowance",
      "outputs": [
        {
          "internalType": "uint256",
          "name": "",
          "type": "uint256"
        }
      ],
      "stateMutability": "view",
      "type": "function"
    },
    {
      "inputs": [
        {
          "internalType": "address",
          "name": "spender",
          "type": "address"
        },
        {
          "internalType": "uint256",
          "name": "amount",
          "type": "uint256"
        }
      ],
      "name": "approve",
      "outputs": [
        {
          "internalType": "bool",
          "name": "",
          "type": "bool"
        }
      ],
      "stateMutability": "nonpayable",
      "type": "function"
    },
    {
      "inputs": [
        {
          "internalType": "address",
          "name": "account",
          "type": "address"
        }
      ],
      "name": "balanceOf",
      "outputs": [
        {
          "internalType": "uint256",
          "name": "",
          "type": "uint256"
        }
      ],
      "stateMutability": "view",
      "type": "function"
    },
    {
      "inputs": [],
      "name": "decimals",
      "outputs": [
        {
          "internalType": "uint8",
          "name": "",
          "type": "uint8"
        }
      ],
      "stateMutability": "view",
      "type": "function"
    },
    {
      "inputs": [
        {
          "internalType": "address",
          "name": "spender",
          "type": "address"
        },
        {
          "internalType": "uint256",
          "name": "subtractedValue",
          "type": "uint256"
        }
      ],
      "name": "decreaseAllowance",
      "outputs": [
        {
          "internalType": "bool",
          "name": "",
          "type": "bool"
        }
      ],
      "stateMutability": "nonpayable",
      "type": "function"
    },
    {
      "inputs": [
        {
          "internalType": "address",
          "name": "_stakingContract",
          "type": "address"
        }
      ],
      "name": "enableLiquidityReserve",
      "outputs": [],
      "stateMutability": "nonpayable",
      "type": "function"
    },
    {
      "inputs": [],
      "name": "fee",
      "outputs": [
        {
          "internalType": "uint256",
          "name": "",
          "type": "uint256"
        }
      ],
      "stateMutability": "view",
      "type": "function"
    },
    {
      "inputs": [
        {
          "internalType": "address",
          "name": "spender",
          "type": "address"
        },
        {
          "internalType": "uint256",
          "name": "addedValue",
          "type": "uint256"
        }
      ],
      "name": "increaseAllowance",
      "outputs": [
        {
          "internalType": "bool",
          "name": "",
          "type": "bool"
        }
      ],
      "stateMutability": "nonpayable",
      "type": "function"
    },
    {
      "inputs": [
        {
          "internalType": "string",
          "name": "_tokenName",
          "type": "string"
        },
        {
          "internalType": "string",
          "name": "_tokenSymbol",
          "type": "string"
        },
        {
          "internalType": "address",
          "name": "_stakingToken",
          "type": "address"
        },
        {
          "internalType": "address",
          "name": "_rewardToken",
          "type": "address"
        }
      ],
      "name": "initialize",
      "outputs": [],
      "stateMutability": "nonpayable",
      "type": "function"
    },
    {
      "inputs": [
        {
          "internalType": "uint256",
          "name": "_amount",
          "type": "uint256"
        },
        {
          "internalType": "address",
          "name": "_recipient",
          "type": "address"
        }
      ],
      "name": "instantUnstake",
      "outputs": [],
      "stateMutability": "nonpayable",
      "type": "function"
    },
    {
      "inputs": [],
      "name": "isReserveEnabled",
      "outputs": [
        {
          "internalType": "bool",
          "name": "",
          "type": "bool"
        }
      ],
      "stateMutability": "view",
      "type": "function"
    },
    {
      "inputs": [],
      "name": "name",
      "outputs": [
        {
          "internalType": "string",
          "name": "",
          "type": "string"
        }
      ],
      "stateMutability": "view",
      "type": "function"
    },
    {
      "inputs": [],
      "name": "owner",
      "outputs": [
        {
          "internalType": "address",
          "name": "",
          "type": "address"
        }
      ],
      "stateMutability": "view",
      "type": "function"
    },
    {
      "inputs": [
        {
          "internalType": "uint256",
          "name": "_amount",
          "type": "uint256"
        }
      ],
      "name": "removeLiquidity",
      "outputs": [],
      "stateMutability": "nonpayable",
      "type": "function"
    },
    {
      "inputs": [],
      "name": "renounceOwnership",
      "outputs": [],
      "stateMutability": "nonpayable",
      "type": "function"
    },
    {
      "inputs": [],
      "name": "rewardToken",
      "outputs": [
        {
          "internalType": "address",
          "name": "",
          "type": "address"
        }
      ],
      "stateMutability": "view",
      "type": "function"
    },
    {
      "inputs": [
        {
          "internalType": "uint256",
          "name": "_fee",
          "type": "uint256"
        }
      ],
      "name": "setFee",
      "outputs": [],
      "stateMutability": "nonpayable",
      "type": "function"
    },
    {
      "inputs": [],
      "name": "stakingContract",
      "outputs": [
        {
          "internalType": "address",
          "name": "",
          "type": "address"
        }
      ],
      "stateMutability": "view",
      "type": "function"
    },
    {
      "inputs": [],
      "name": "stakingToken",
      "outputs": [
        {
          "internalType": "address",
          "name": "",
          "type": "address"
        }
      ],
      "stateMutability": "view",
      "type": "function"
    },
    {
      "inputs": [],
      "name": "symbol",
      "outputs": [
        {
          "internalType": "string",
          "name": "",
          "type": "string"
        }
      ],
      "stateMutability": "view",
      "type": "function"
    },
    {
      "inputs": [],
      "name": "totalSupply",
      "outputs": [
        {
          "internalType": "uint256",
          "name": "",
          "type": "uint256"
        }
      ],
      "stateMutability": "view",
      "type": "function"
    },
    {
      "inputs": [
        {
          "internalType": "address",
          "name": "to",
          "type": "address"
        },
        {
          "internalType": "uint256",
          "name": "amount",
          "type": "uint256"
        }
      ],
      "name": "transfer",
      "outputs": [
        {
          "internalType": "bool",
          "name": "",
          "type": "bool"
        }
      ],
      "stateMutability": "nonpayable",
      "type": "function"
    },
    {
      "inputs": [
        {
          "internalType": "address",
          "name": "from",
          "type": "address"
        },
        {
          "internalType": "address",
          "name": "to",
          "type": "address"
        },
        {
          "internalType": "uint256",
          "name": "amount",
          "type": "uint256"
        }
      ],
      "name": "transferFrom",
      "outputs": [
        {
          "internalType": "bool",
          "name": "",
          "type": "bool"
        }
      ],
      "stateMutability": "nonpayable",
      "type": "function"
    },
    {
      "inputs": [
        {
          "internalType": "address",
          "name": "newOwner",
          "type": "address"
        }
      ],
      "name": "transferOwnership",
      "outputs": [],
      "stateMutability": "nonpayable",
      "type": "function"
    },
    {
      "inputs": [],
      "name": "unstakeAllRewardTokens",
      "outputs": [],
      "stateMutability": "nonpayable",
      "type": "function"
    }
  ],
  "bytecode": "0x608060405234801561001057600080fd5b50613043806100206000396000f3fe608060405234801561001057600080fd5b50600436106101c45760003560e01c80638f15b414116100f9578063dd62ed3e11610097578063ed45647811610071578063ed45647814610402578063ee99205c1461040a578063f2fde38b1461042a578063f7c618c11461043d57600080fd5b8063dd62ed3e146103aa578063ddca3f43146103f0578063e1f1c4a7146103f957600080fd5b8063a457c2d7116100d3578063a457c2d714610368578063a9059cbb1461037b578063ba9a7a561461038e578063bbb6a9831461039757600080fd5b80638f15b4141461033a57806395d89b411461034d5780639c8f9f231461035557600080fd5b80634246d1ff1161016657806370a082311161014057806370a0823114610299578063715018a6146102cf57806372f702f3146102d75780638da5cb5b1461031c57600080fd5b80634246d1ff1461025e57806351c6590a1461027357806369fe0e2d1461028657600080fd5b806323b872dd116101a257806323b872dd1461021c5780632dd2f33c1461022f578063313ce5671461023c578063395093511461024b57600080fd5b806306fdde03146101c9578063095ea7b3146101e757806318160ddd1461020a575b600080fd5b6101d161045d565b6040516101de9190612b67565b60405180910390f35b6101fa6101f5366004612be1565b6104ef565b60405190151581526020016101de565b6039545b6040519081526020016101de565b6101fa61022a366004612c0b565b610507565b6004546101fa9060ff1681565b604051601281526020016101de565b6101fa610259366004612be1565b61052d565b61027161026c366004612c47565b610579565b005b610271610281366004612c62565b610959565b610271610294366004612c62565b610c30565b61020e6102a7366004612c47565b73ffffffffffffffffffffffffffffffffffffffff1660009081526037602052604090205490565b610271610d58565b6000546102f79073ffffffffffffffffffffffffffffffffffffffff1681565b60405173ffffffffffffffffffffffffffffffffffffffff90911681526020016101de565b60695473ffffffffffffffffffffffffffffffffffffffff166102f7565b610271610348366004612d55565b610de5565b6101d1611014565b610271610363366004612c62565b611023565b6101fa610376366004612be1565b61126a565b6101fa610389366004612be1565b611346565b61020e6103e881565b6102716103a5366004612dda565b611354565b61020e6103b8366004612e06565b73ffffffffffffffffffffffffffffffffffffffff918216600090815260386020908152604080832093909416825291909152205490565b61020e60035481565b61020e61271081565b610271611544565b6002546102f79073ffffffffffffffffffffffffffffffffffffffff1681565b610271610438366004612c47565b611794565b6001546102f79073ffffffffffffffffffffffffffffffffffffffff1681565b6060603a805461046c90612e30565b80601f016020809104026020016040519081016040528092919081815260200182805461049890612e30565b80156104e55780601f106104ba576101008083540402835291602001916104e5565b820191906000526020600020905b8154815290600101906020018083116104c857829003601f168201915b5050505050905090565b6000336104fd8185856118c1565b5060019392505050565b600033610515858285611a74565b610520858585611b4b565b60019150505b9392505050565b33600081815260386020908152604080832073ffffffffffffffffffffffffffffffffffffffff871684529091528120549091906104fd9082908690610574908790612eb3565b6118c1565b60695473ffffffffffffffffffffffffffffffffffffffff1633146105ff576040517f08c379a000000000000000000000000000000000000000000000000000000000815260206004820181905260248201527f4f776e61626c653a2063616c6c6572206973206e6f7420746865206f776e657260448201526064015b60405180910390fd5b60045460ff161561066c576040517f08c379a000000000000000000000000000000000000000000000000000000000815260206004820152600f60248201527f416c726561647920656e61626c6564000000000000000000000000000000000060448201526064016105f6565b73ffffffffffffffffffffffffffffffffffffffff81166106e9576040517f08c379a000000000000000000000000000000000000000000000000000000000815260206004820152600f60248201527f496e76616c69642061646472657373000000000000000000000000000000000060448201526064016105f6565b600080546040517f70a0823100000000000000000000000000000000000000000000000000000000815233600482015273ffffffffffffffffffffffffffffffffffffffff909116906370a082319060240160206040518083038186803b15801561075357600080fd5b505afa158015610767573d6000803e3d6000fd5b505050506040513d601f19601f8201168201806040525081019061078b9190612ecb565b90506103e88110156107f9576040517f08c379a000000000000000000000000000000000000000000000000000000000815260206004820152601960248201527f4e6f7420656e6f756768207374616b696e6720746f6b656e730000000000000060448201526064016105f6565b600280547fffffffffffffffffffffffff00000000000000000000000000000000000000001673ffffffffffffffffffffffffffffffffffffffff84811691909117909155600054610850911633306103e8611dfe565b61085c306103e8611eda565b6001546002546040517f095ea7b300000000000000000000000000000000000000000000000000000000815273ffffffffffffffffffffffffffffffffffffffff91821660048201527fffffffffffffffffffffffffffffffffffffffffffffffffffffffffffffffff602482015291169063095ea7b390604401602060405180830381600087803b1580156108f157600080fd5b505af1158015610905573d6000803e3d6000fd5b505050506040513d601f19601f820116820180604052508101906109299190612ee4565b5050600480547fffffffffffffffffffffffffffffffffffffffffffffffffffffffffffffff0016600117905550565b60045460ff166109c5576040517f08c379a000000000000000000000000000000000000000000000000000000000815260206004820152600f60248201527f4e6f7420656e61626c656420796574000000000000000000000000000000000060448201526064016105f6565b600080546040517f70a0823100000000000000000000000000000000000000000000000000000000815230600482015273ffffffffffffffffffffffffffffffffffffffff909116906370a082319060240160206040518083038186803b158015610a2f57600080fd5b505afa158015610a43573d6000803e3d6000fd5b505050506040513d601f19601f82011682018060405250810190610a679190612ecb565b6001546040517f70a0823100000000000000000000000000000000000000000000000000000000815230600482015291925060009173ffffffffffffffffffffffffffffffffffffffff909116906370a082319060240160206040518083038186803b158015610ad657600080fd5b505afa158015610aea573d6000803e3d6000fd5b505050506040513d601f19601f82011682018060405250810190610b0e9190612ecb565b90506000610b1b60395490565b6002546040517f1b618cc000000000000000000000000000000000000000000000000000000000815230600482015291925060009173ffffffffffffffffffffffffffffffffffffffff90911690631b618cc09060240160606040518083038186803b158015610b8a57600080fd5b505afa158015610b9e573d6000803e3d6000fd5b505050506040513d601f19601f82011682018060405250810190610bc29190612f06565b519050600081610bd28587612eb3565b610bdc9190612eb3565b9050600081610beb8589612f62565b610bf59190612f9f565b600054909150610c1d9073ffffffffffffffffffffffffffffffffffffffff1633308a611dfe565b610c273382611eda565b50505050505050565b60695473ffffffffffffffffffffffffffffffffffffffff163314610cb1576040517f08c379a000000000000000000000000000000000000000000000000000000000815260206004820181905260248201527f4f776e61626c653a2063616c6c6572206973206e6f7420746865206f776e657260448201526064016105f6565b612710811115610d1d576040517f08c379a000000000000000000000000000000000000000000000000000000000815260206004820152600c60248201527f4f7574206f662072616e6765000000000000000000000000000000000000000060448201526064016105f6565b60038190556040518181527f6bbc57480a46553fa4d156ce702beef5f3ad66303b0ed1a5d4cb44966c6584c39060200160405180910390a150565b60695473ffffffffffffffffffffffffffffffffffffffff163314610dd9576040517f08c379a000000000000000000000000000000000000000000000000000000000815260206004820181905260248201527f4f776e61626c653a2063616c6c6572206973206e6f7420746865206f776e657260448201526064016105f6565b610de36000611ffa565b565b60045462010000900460ff16610e0657600454610100900460ff1615610e0a565b303b155b610e96576040517f08c379a000000000000000000000000000000000000000000000000000000000815260206004820152602e60248201527f496e697469616c697a61626c653a20636f6e747261637420697320616c72656160448201527f647920696e697469616c697a656400000000000000000000000000000000000060648201526084016105f6565b60045462010000900460ff16158015610ed757600480547fffffffffffffffffffffffffffffffffffffffffffffffffffffffffff0000ff16620101001790555b610ee18585612071565b610ee9612113565b73ffffffffffffffffffffffffffffffffffffffff831615801590610f23575073ffffffffffffffffffffffffffffffffffffffff821615155b610f89576040517f08c379a000000000000000000000000000000000000000000000000000000000815260206004820152600f60248201527f496e76616c69642061646472657373000000000000000000000000000000000060448201526064016105f6565b6000805473ffffffffffffffffffffffffffffffffffffffff8086167fffffffffffffffffffffffff0000000000000000000000000000000000000000928316179092556001805492851692909116919091179055801561100d57600480547fffffffffffffffffffffffffffffffffffffffffffffffffffffffffff00ffff1690555b5050505050565b6060603b805461046c90612e30565b3360009081526037602052604090205481111561109c576040517f08c379a000000000000000000000000000000000000000000000000000000000815260206004820152601460248201527f4e6f7420656e6f756768206c7220746f6b656e7300000000000000000000000060448201526064016105f6565b6002546040517f516c49d900000000000000000000000000000000000000000000000000000000815230600482015273ffffffffffffffffffffffffffffffffffffffff9091169063516c49d990602401600060405180830381600087803b15801561110757600080fd5b505af115801561111b573d6000803e3d6000fd5b50505050600061112a826121b3565b6000546040517f70a08231000000000000000000000000000000000000000000000000000000008152306004820152919250829173ffffffffffffffffffffffffffffffffffffffff909116906370a082319060240160206040518083038186803b15801561119857600080fd5b505afa1580156111ac573d6000803e3d6000fd5b505050506040513d601f19601f820116820180604052508101906111d09190612ecb565b1015611238576040517f08c379a000000000000000000000000000000000000000000000000000000000815260206004820152601060248201527f4e6f7420656e6f7567682066756e64730000000000000000000000000000000060448201526064016105f6565b61124233836123f3565b6000546112669073ffffffffffffffffffffffffffffffffffffffff1633836125e0565b5050565b33600081815260386020908152604080832073ffffffffffffffffffffffffffffffffffffffff871684529091528120549091908381101561132e576040517f08c379a000000000000000000000000000000000000000000000000000000000815260206004820152602560248201527f45524332303a2064656372656173656420616c6c6f77616e63652062656c6f7760448201527f207a65726f00000000000000000000000000000000000000000000000000000060648201526084016105f6565b61133b82868684036118c1565b506001949350505050565b6000336104fd818585611b4b565b60025473ffffffffffffffffffffffffffffffffffffffff1633146113d5576040517f08c379a000000000000000000000000000000000000000000000000000000000815260206004820152601460248201527f4e6f74207374616b696e6720636f6e747261637400000000000000000000000060448201526064016105f6565b60045460ff16611441576040517f08c379a000000000000000000000000000000000000000000000000000000000815260206004820152600f60248201527f4e6f7420656e61626c656420796574000000000000000000000000000000000060448201526064016105f6565b6002546040517f516c49d900000000000000000000000000000000000000000000000000000000815230600482015273ffffffffffffffffffffffffffffffffffffffff9091169063516c49d990602401600060405180830381600087803b1580156114ac57600080fd5b505af11580156114c0573d6000803e3d6000fd5b505050506000612710600354846114d79190612f62565b6114e19190612f9f565b6114eb9084612fda565b6001549091506115139073ffffffffffffffffffffffffffffffffffffffff16333086611dfe565b6000546115379073ffffffffffffffffffffffffffffffffffffffff1683836125e0565b61153f611544565b505050565b60045460ff166115b0576040517f08c379a000000000000000000000000000000000000000000000000000000000815260206004820152600f60248201527f4e6f7420656e61626c656420796574000000000000000000000000000000000060448201526064016105f6565b6002546040517f1b618cc000000000000000000000000000000000000000000000000000000000815230600482015260009173ffffffffffffffffffffffffffffffffffffffff1690631b618cc09060240160606040518083038186803b15801561161a57600080fd5b505afa15801561162e573d6000803e3d6000fd5b505050506040513d601f19601f820116820180604052508101906116529190612f06565b51905080611791576001546040517f70a0823100000000000000000000000000000000000000000000000000000000815230600482015260009173ffffffffffffffffffffffffffffffffffffffff16906370a082319060240160206040518083038186803b1580156116c457600080fd5b505afa1580156116d8573d6000803e3d6000fd5b505050506040513d601f19601f820116820180604052508101906116fc9190612ecb565b90508015611266576002546040517f9ebea88c000000000000000000000000000000000000000000000000000000008152600481018390526000602482015273ffffffffffffffffffffffffffffffffffffffff90911690639ebea88c90604401600060405180830381600087803b15801561177757600080fd5b505af115801561178b573d6000803e3d6000fd5b50505050505b50565b60695473ffffffffffffffffffffffffffffffffffffffff163314611815576040517f08c379a000000000000000000000000000000000000000000000000000000000815260206004820181905260248201527f4f776e61626c653a2063616c6c6572206973206e6f7420746865206f776e657260448201526064016105f6565b73ffffffffffffffffffffffffffffffffffffffff81166118b8576040517f08c379a000000000000000000000000000000000000000000000000000000000815260206004820152602660248201527f4f776e61626c653a206e6577206f776e657220697320746865207a65726f206160448201527f646472657373000000000000000000000000000000000000000000000000000060648201526084016105f6565b61179181611ffa565b73ffffffffffffffffffffffffffffffffffffffff8316611963576040517f08c379a0000000000000000000000000000000000000000000000000000000008152602060048201526024808201527f45524332303a20617070726f76652066726f6d20746865207a65726f2061646460448201527f726573730000000000000000000000000000000000000000000000000000000060648201526084016105f6565b73ffffffffffffffffffffffffffffffffffffffff8216611a06576040517f08c379a000000000000000000000000000000000000000000000000000000000815260206004820152602260248201527f45524332303a20617070726f766520746f20746865207a65726f20616464726560448201527f737300000000000000000000000000000000000000000000000000000000000060648201526084016105f6565b73ffffffffffffffffffffffffffffffffffffffff83811660008181526038602090815260408083209487168084529482529182902085905590518481527f8c5be1e5ebec7d5bd14f71427d1e84f3dd0314c0f7b2291e5b200ac8c7c3b925910160405180910390a3505050565b73ffffffffffffffffffffffffffffffffffffffff8381166000908152603860209081526040808320938616835292905220547fffffffffffffffffffffffffffffffffffffffffffffffffffffffffffffffff8114611b455781811015611b38576040517f08c379a000000000000000000000000000000000000000000000000000000000815260206004820152601d60248201527f45524332303a20696e73756666696369656e7420616c6c6f77616e636500000060448201526064016105f6565b611b4584848484036118c1565b50505050565b73ffffffffffffffffffffffffffffffffffffffff8316611bee576040517f08c379a000000000000000000000000000000000000000000000000000000000815260206004820152602560248201527f45524332303a207472616e736665722066726f6d20746865207a65726f20616460448201527f647265737300000000000000000000000000000000000000000000000000000060648201526084016105f6565b73ffffffffffffffffffffffffffffffffffffffff8216611c91576040517f08c379a000000000000000000000000000000000000000000000000000000000815260206004820152602360248201527f45524332303a207472616e7366657220746f20746865207a65726f206164647260448201527f657373000000000000000000000000000000000000000000000000000000000060648201526084016105f6565b73ffffffffffffffffffffffffffffffffffffffff831660009081526037602052604090205481811015611d47576040517f08c379a000000000000000000000000000000000000000000000000000000000815260206004820152602660248201527f45524332303a207472616e7366657220616d6f756e742065786365656473206260448201527f616c616e6365000000000000000000000000000000000000000000000000000060648201526084016105f6565b73ffffffffffffffffffffffffffffffffffffffff808516600090815260376020526040808220858503905591851681529081208054849290611d8b908490612eb3565b925050819055508273ffffffffffffffffffffffffffffffffffffffff168473ffffffffffffffffffffffffffffffffffffffff167fddf252ad1be2c89b69c2b068fc378daa952ba7f163c4a11628f55a4df523b3ef84604051611df191815260200190565b60405180910390a3611b45565b60405173ffffffffffffffffffffffffffffffffffffffff80851660248301528316604482015260648101829052611b459085907f23b872dd00000000000000000000000000000000000000000000000000000000906084015b604080517fffffffffffffffffffffffffffffffffffffffffffffffffffffffffffffffe08184030181529190526020810180517bffffffffffffffffffffffffffffffffffffffffffffffffffffffff167fffffffff0000000000000000000000000000000000000000000000000000000090931692909217909152612636565b73ffffffffffffffffffffffffffffffffffffffff8216611f57576040517f08c379a000000000000000000000000000000000000000000000000000000000815260206004820152601f60248201527f45524332303a206d696e7420746f20746865207a65726f20616464726573730060448201526064016105f6565b8060396000828254611f699190612eb3565b909155505073ffffffffffffffffffffffffffffffffffffffff821660009081526037602052604081208054839290611fa3908490612eb3565b909155505060405181815273ffffffffffffffffffffffffffffffffffffffff8316906000907fddf252ad1be2c89b69c2b068fc378daa952ba7f163c4a11628f55a4df523b3ef9060200160405180910390a35050565b6069805473ffffffffffffffffffffffffffffffffffffffff8381167fffffffffffffffffffffffff0000000000000000000000000000000000000000831681179093556040519116919082907f8be0079c531659141344cd1fd0a4f28419497f9722a3daafe3b4186f6b6457e090600090a35050565b60045462010000900460ff16612109576040517f08c379a000000000000000000000000000000000000000000000000000000000815260206004820152602b60248201527f496e697469616c697a61626c653a20636f6e7472616374206973206e6f74206960448201527f6e697469616c697a696e6700000000000000000000000000000000000000000060648201526084016105f6565b6112668282612742565b60045462010000900460ff166121ab576040517f08c379a000000000000000000000000000000000000000000000000000000000815260206004820152602b60248201527f496e697469616c697a61626c653a20636f6e7472616374206973206e6f74206960448201527f6e697469616c697a696e6700000000000000000000000000000000000000000060648201526084016105f6565b610de3612801565b6000806121bf60395490565b600080546040517f70a08231000000000000000000000000000000000000000000000000000000008152306004820152929350909173ffffffffffffffffffffffffffffffffffffffff909116906370a082319060240160206040518083038186803b15801561222e57600080fd5b505afa158015612242573d6000803e3d6000fd5b505050506040513d601f19601f820116820180604052508101906122669190612ecb565b6001546040517f70a0823100000000000000000000000000000000000000000000000000000000815230600482015291925060009173ffffffffffffffffffffffffffffffffffffffff909116906370a082319060240160206040518083038186803b1580156122d557600080fd5b505afa1580156122e9573d6000803e3d6000fd5b505050506040513d601f19601f8201168201806040525081019061230d9190612ecb565b6002546040517f1b618cc000000000000000000000000000000000000000000000000000000000815230600482015291925060009173ffffffffffffffffffffffffffffffffffffffff90911690631b618cc09060240160606040518083038186803b15801561237c57600080fd5b505afa158015612390573d6000803e3d6000fd5b505050506040513d601f19601f820116820180604052508101906123b49190612f06565b5190506000816123c48486612eb3565b6123ce9190612eb3565b90506000856123dd838a612f62565b6123e79190612f9f565b98975050505050505050565b73ffffffffffffffffffffffffffffffffffffffff8216612496576040517f08c379a000000000000000000000000000000000000000000000000000000000815260206004820152602160248201527f45524332303a206275726e2066726f6d20746865207a65726f2061646472657360448201527f730000000000000000000000000000000000000000000000000000000000000060648201526084016105f6565b73ffffffffffffffffffffffffffffffffffffffff82166000908152603760205260409020548181101561254c576040517f08c379a000000000000000000000000000000000000000000000000000000000815260206004820152602260248201527f45524332303a206275726e20616d6f756e7420657863656564732062616c616e60448201527f636500000000000000000000000000000000000000000000000000000000000060648201526084016105f6565b73ffffffffffffffffffffffffffffffffffffffff83166000908152603760205260408120838303905560398054849290612588908490612fda565b909155505060405182815260009073ffffffffffffffffffffffffffffffffffffffff8516907fddf252ad1be2c89b69c2b068fc378daa952ba7f163c4a11628f55a4df523b3ef9060200160405180910390a3505050565b60405173ffffffffffffffffffffffffffffffffffffffff831660248201526044810182905261153f9084907fa9059cbb0000000000000000000000000000000000000000000000000000000090606401611e58565b6000612698826040518060400160405280602081526020017f5361666545524332303a206c6f772d6c6576656c2063616c6c206661696c65648152508573ffffffffffffffffffffffffffffffffffffffff166128a29092919063ffffffff16565b80519091501561153f57808060200190518101906126b69190612ee4565b61153f576040517f08c379a000000000000000000000000000000000000000000000000000000000815260206004820152602a60248201527f5361666545524332303a204552433230206f7065726174696f6e20646964206e60448201527f6f7420737563636565640000000000000000000000000000000000000000000060648201526084016105f6565b60045462010000900460ff166127da576040517f08c379a000000000000000000000000000000000000000000000000000000000815260206004820152602b60248201527f496e697469616c697a61626c653a20636f6e7472616374206973206e6f74206960448201527f6e697469616c697a696e6700000000000000000000000000000000000000000060648201526084016105f6565b81516127ed90603a906020850190612aa2565b50805161153f90603b906020840190612aa2565b60045462010000900460ff16612899576040517f08c379a000000000000000000000000000000000000000000000000000000000815260206004820152602b60248201527f496e697469616c697a61626c653a20636f6e7472616374206973206e6f74206960448201527f6e697469616c697a696e6700000000000000000000000000000000000000000060648201526084016105f6565b610de333611ffa565b60606128b184846000856128b9565b949350505050565b60608247101561294b576040517f08c379a000000000000000000000000000000000000000000000000000000000815260206004820152602660248201527f416464726573733a20696e73756666696369656e742062616c616e636520666f60448201527f722063616c6c000000000000000000000000000000000000000000000000000060648201526084016105f6565b73ffffffffffffffffffffffffffffffffffffffff85163b6129c9576040517f08c379a000000000000000000000000000000000000000000000000000000000815260206004820152601d60248201527f416464726573733a2063616c6c20746f206e6f6e2d636f6e747261637400000060448201526064016105f6565b6000808673ffffffffffffffffffffffffffffffffffffffff1685876040516129f29190612ff1565b60006040518083038185875af1925050503d8060008114612a2f576040519150601f19603f3d011682016040523d82523d6000602084013e612a34565b606091505b5091509150612a44828286612a4f565b979650505050505050565b60608315612a5e575081610526565b825115612a6e5782518084602001fd5b816040517f08c379a00000000000000000000000000000000000000000000000000000000081526004016105f69190612b67565b828054612aae90612e30565b90600052602060002090601f016020900481019282612ad05760008555612b16565b82601f10612ae957805160ff1916838001178555612b16565b82800160010185558215612b16579182015b82811115612b16578251825591602001919060010190612afb565b50612b22929150612b26565b5090565b5b80821115612b225760008155600101612b27565b60005b83811015612b56578181015183820152602001612b3e565b83811115611b455750506000910152565b6020815260008251806020840152612b86816040850160208701612b3b565b601f017fffffffffffffffffffffffffffffffffffffffffffffffffffffffffffffffe0169190910160400192915050565b803573ffffffffffffffffffffffffffffffffffffffff81168114612bdc57600080fd5b919050565b60008060408385031215612bf457600080fd5b612bfd83612bb8565b946020939093013593505050565b600080600060608486031215612c2057600080fd5b612c2984612bb8565b9250612c3760208501612bb8565b9150604084013590509250925092565b600060208284031215612c5957600080fd5b61052682612bb8565b600060208284031215612c7457600080fd5b5035919050565b7f4e487b7100000000000000000000000000000000000000000000000000000000600052604160045260246000fd5b600082601f830112612cbb57600080fd5b813567ffffffffffffffff80821115612cd657612cd6612c7b565b604051601f83017fffffffffffffffffffffffffffffffffffffffffffffffffffffffffffffffe0908116603f01168101908282118183101715612d1c57612d1c612c7b565b81604052838152866020858801011115612d3557600080fd5b836020870160208301376000602085830101528094505050505092915050565b60008060008060808587031215612d6b57600080fd5b843567ffffffffffffffff80821115612d8357600080fd5b612d8f88838901612caa565b95506020870135915080821115612da557600080fd5b50612db287828801612caa565b935050612dc160408601612bb8565b9150612dcf60608601612bb8565b905092959194509250565b60008060408385031215612ded57600080fd5b82359150612dfd60208401612bb8565b90509250929050565b60008060408385031215612e1957600080fd5b612e2283612bb8565b9150612dfd60208401612bb8565b600181811c90821680612e4457607f821691505b60208210811415612e7e577f4e487b7100000000000000000000000000000000000000000000000000000000600052602260045260246000fd5b50919050565b7f4e487b7100000000000000000000000000000000000000000000000000000000600052601160045260246000fd5b60008219821115612ec657612ec6612e84565b500190565b600060208284031215612edd57600080fd5b5051919050565b600060208284031215612ef657600080fd5b8151801515811461052657600080fd5b600060608284031215612f1857600080fd5b6040516060810181811067ffffffffffffffff82111715612f3b57612f3b612c7b565b80604052508251815260208301516020820152604083015160408201528091505092915050565b6000817fffffffffffffffffffffffffffffffffffffffffffffffffffffffffffffffff0483118215151615612f9a57612f9a612e84565b500290565b600082612fd5577f4e487b7100000000000000000000000000000000000000000000000000000000600052601260045260246000fd5b500490565b600082821015612fec57612fec612e84565b500390565b60008251613003818460208701612b3b565b919091019291505056fea26469706673582212208cd1a8c67fae832e66836f30fa8f3c17eebb1bca4d2b5576969e7d3e920dda2d64736f6c63430008090033",
  "linkReferences": {},
  "deployedLinkReferences": {}
}