{
  "_format": "hh-sol-artifact-1",
  "contractName": "StakingV2Test",
  "sourceName": "src/contracts/test/StakingUpgradeTest.sol",
  "abi": [
    {
      "anonymous": false,
      "inputs": [
        {
          "indexed": true,
          "internalType": "uint256",
          "name": "blockNumber",
          "type": "uint256"
        },
        {
          "indexed": false,
          "internalType": "address",
          "name": "affilateAddress",
          "type": "address"
        }
      ],
      "name": "LogSetAffiliateAddress",
      "type": "event"
    },
    {
      "anonymous": false,
      "inputs": [
        {
          "indexed": true,
          "internalType": "uint256",
          "name": "blockNumber",
          "type": "uint256"
        },
        {
          "indexed": false,
          "internalType": "uint256",
          "name": "fee",
          "type": "uint256"
        }
      ],
      "name": "LogSetAffiliateFee",
      "type": "event"
    },
    {
      "anonymous": false,
      "inputs": [
        {
          "indexed": true,
          "internalType": "uint256",
          "name": "blockNumber",
          "type": "uint256"
        },
        {
          "indexed": false,
          "internalType": "uint256",
          "name": "period",
          "type": "uint256"
        }
      ],
      "name": "LogSetCoolDownPeriod",
      "type": "event"
    },
    {
      "anonymous": false,
      "inputs": [
        {
          "indexed": true,
          "internalType": "address",
          "name": "curvePool",
          "type": "address"
        },
        {
          "indexed": false,
          "internalType": "int128",
          "name": "to",
          "type": "int128"
        },
        {
          "indexed": false,
          "internalType": "int128",
          "name": "from",
          "type": "int128"
        }
      ],
      "name": "LogSetCurvePool",
      "type": "event"
    },
    {
      "anonymous": false,
      "inputs": [
        {
          "indexed": true,
          "internalType": "uint256",
          "name": "blockNumber",
          "type": "uint256"
        },
        {
          "indexed": false,
          "internalType": "uint256",
          "name": "duration",
          "type": "uint256"
        }
      ],
      "name": "LogSetEpochDuration",
      "type": "event"
    },
    {
      "anonymous": false,
      "inputs": [
        {
          "indexed": true,
          "internalType": "uint256",
          "name": "blockNumber",
          "type": "uint256"
        },
        {
          "indexed": false,
          "internalType": "bool",
          "name": "shouldPause",
          "type": "bool"
        }
      ],
      "name": "LogSetPauseInstantUnstaking",
      "type": "event"
    },
    {
      "anonymous": false,
      "inputs": [
        {
          "indexed": true,
          "internalType": "uint256",
          "name": "blockNumber",
          "type": "uint256"
        },
        {
          "indexed": false,
          "internalType": "bool",
          "name": "shouldPause",
          "type": "bool"
        }
      ],
      "name": "LogSetPauseStaking",
      "type": "event"
    },
    {
      "anonymous": false,
      "inputs": [
        {
          "indexed": true,
          "internalType": "uint256",
          "name": "blockNumber",
          "type": "uint256"
        },
        {
          "indexed": false,
          "internalType": "bool",
          "name": "shouldPause",
          "type": "bool"
        }
      ],
      "name": "LogSetPauseUnstaking",
      "type": "event"
    },
    {
      "anonymous": false,
      "inputs": [
        {
          "indexed": true,
          "internalType": "uint256",
          "name": "blockNumber",
          "type": "uint256"
        },
        {
          "indexed": false,
          "internalType": "uint256",
          "name": "period",
          "type": "uint256"
        }
      ],
      "name": "LogSetWarmUpPeriod",
      "type": "event"
    },
    {
      "anonymous": false,
      "inputs": [
        {
          "indexed": true,
          "internalType": "address",
          "name": "previousOwner",
          "type": "address"
        },
        {
          "indexed": true,
          "internalType": "address",
          "name": "newOwner",
          "type": "address"
        }
      ],
      "name": "OwnershipTransferred",
      "type": "event"
    },
    {
      "inputs": [],
      "name": "BASIS_POINTS",
      "outputs": [
        {
          "internalType": "uint256",
          "name": "",
          "type": "uint256"
        }
      ],
      "stateMutability": "view",
      "type": "function"
    },
    {
      "inputs": [],
      "name": "COW_RELAYER",
      "outputs": [
        {
          "internalType": "address",
          "name": "",
          "type": "address"
        }
      ],
      "stateMutability": "view",
      "type": "function"
    },
    {
      "inputs": [],
      "name": "COW_SETTLEMENT",
      "outputs": [
        {
          "internalType": "address",
          "name": "",
          "type": "address"
        }
      ],
      "stateMutability": "view",
      "type": "function"
    },
    {
      "inputs": [],
      "name": "CURVE_POOL",
      "outputs": [
        {
          "internalType": "address",
          "name": "",
          "type": "address"
        }
      ],
      "stateMutability": "view",
      "type": "function"
    },
    {
      "inputs": [],
      "name": "FEE_ADDRESS",
      "outputs": [
        {
          "internalType": "address",
          "name": "",
          "type": "address"
        }
      ],
      "stateMutability": "view",
      "type": "function"
    },
    {
      "inputs": [],
      "name": "LIQUIDITY_RESERVE",
      "outputs": [
        {
          "internalType": "address",
          "name": "",
          "type": "address"
        }
      ],
      "stateMutability": "view",
      "type": "function"
    },
    {
      "inputs": [],
      "name": "STAKING_TOKEN",
      "outputs": [
        {
          "internalType": "address",
          "name": "",
          "type": "address"
        }
      ],
      "stateMutability": "view",
      "type": "function"
    },
    {
      "inputs": [],
      "name": "TOKE_MANAGER",
      "outputs": [
        {
          "internalType": "address",
          "name": "",
          "type": "address"
        }
      ],
      "stateMutability": "view",
      "type": "function"
    },
    {
      "inputs": [],
      "name": "TOKE_POOL",
      "outputs": [
        {
          "internalType": "address",
          "name": "",
          "type": "address"
        }
      ],
      "stateMutability": "view",
      "type": "function"
    },
    {
      "inputs": [],
      "name": "TOKE_REWARD",
      "outputs": [
        {
          "internalType": "address",
          "name": "",
          "type": "address"
        }
      ],
      "stateMutability": "view",
      "type": "function"
    },
    {
      "inputs": [],
      "name": "TOKE_TOKEN",
      "outputs": [
        {
          "internalType": "address",
          "name": "",
          "type": "address"
        }
      ],
      "stateMutability": "view",
      "type": "function"
    },
    {
      "inputs": [],
      "name": "YIELDY_TOKEN",
      "outputs": [
        {
          "internalType": "address",
          "name": "",
          "type": "address"
        }
      ],
      "stateMutability": "view",
      "type": "function"
    },
    {
      "inputs": [
        {
          "internalType": "uint256",
          "name": "_amount",
          "type": "uint256"
        },
        {
          "internalType": "bool",
          "name": "_shouldTransfer",
          "type": "bool"
        },
        {
          "internalType": "bool",
          "name": "_trigger",
          "type": "bool"
        }
      ],
      "name": "addRewardsForStakers",
      "outputs": [],
      "stateMutability": "nonpayable",
      "type": "function"
    },
    {
      "inputs": [],
      "name": "affiliateFee",
      "outputs": [
        {
          "internalType": "uint256",
          "name": "",
          "type": "uint256"
        }
      ],
      "stateMutability": "view",
      "type": "function"
    },
    {
      "inputs": [],
      "name": "canBatchTransactions",
      "outputs": [
        {
          "internalType": "bool",
          "name": "",
          "type": "bool"
        }
      ],
      "stateMutability": "view",
      "type": "function"
    },
    {
      "inputs": [
        {
          "internalType": "address",
          "name": "_recipient",
          "type": "address"
        }
      ],
      "name": "claim",
      "outputs": [],
      "stateMutability": "nonpayable",
      "type": "function"
    },
    {
      "inputs": [
        {
          "components": [
            {
              "internalType": "uint256",
              "name": "chainId",
              "type": "uint256"
            },
            {
              "internalType": "uint256",
              "name": "cycle",
              "type": "uint256"
            },
            {
              "internalType": "address",
              "name": "wallet",
              "type": "address"
            },
            {
              "internalType": "uint256",
              "name": "amount",
              "type": "uint256"
            }
          ],
          "internalType": "struct Recipient",
          "name": "_recipient",
          "type": "tuple"
        },
        {
          "internalType": "uint8",
          "name": "_v",
          "type": "uint8"
        },
        {
          "internalType": "bytes32",
          "name": "_r",
          "type": "bytes32"
        },
        {
          "internalType": "bytes32",
          "name": "_s",
          "type": "bytes32"
        }
      ],
      "name": "claimFromTokemak",
      "outputs": [],
      "stateMutability": "nonpayable",
      "type": "function"
    },
    {
      "inputs": [
        {
          "internalType": "address",
          "name": "_recipient",
          "type": "address"
        }
      ],
      "name": "claimWithdraw",
      "outputs": [],
      "stateMutability": "nonpayable",
      "type": "function"
    },
    {
      "inputs": [
        {
          "internalType": "address",
          "name": "",
          "type": "address"
        }
      ],
      "name": "coolDownInfo",
      "outputs": [
        {
          "internalType": "uint256",
          "name": "amount",
          "type": "uint256"
        },
        {
          "internalType": "uint256",
          "name": "credits",
          "type": "uint256"
        },
        {
          "internalType": "uint256",
          "name": "expiry",
          "type": "uint256"
        }
      ],
      "stateMutability": "view",
      "type": "function"
    },
    {
      "inputs": [],
      "name": "coolDownPeriod",
      "outputs": [
        {
          "internalType": "uint256",
          "name": "",
          "type": "uint256"
        }
      ],
      "stateMutability": "view",
      "type": "function"
    },
    {
      "inputs": [],
      "name": "curvePoolFrom",
      "outputs": [
        {
          "internalType": "int128",
          "name": "",
          "type": "int128"
        }
      ],
      "stateMutability": "view",
      "type": "function"
    },
    {
      "inputs": [],
      "name": "curvePoolTo",
      "outputs": [
        {
          "internalType": "int128",
          "name": "",
          "type": "int128"
        }
      ],
      "stateMutability": "view",
      "type": "function"
    },
    {
      "inputs": [],
      "name": "epoch",
      "outputs": [
        {
          "internalType": "uint256",
          "name": "duration",
          "type": "uint256"
        },
        {
          "internalType": "uint256",
          "name": "number",
          "type": "uint256"
        },
        {
          "internalType": "uint256",
          "name": "timestamp",
          "type": "uint256"
        },
        {
          "internalType": "uint256",
          "name": "endTime",
          "type": "uint256"
        },
        {
          "internalType": "uint256",
          "name": "distribute",
          "type": "uint256"
        }
      ],
      "stateMutability": "view",
      "type": "function"
    },
    {
      "inputs": [
        {
          "internalType": "uint256",
          "name": "_amount",
          "type": "uint256"
        }
      ],
      "name": "estimateInstantCurve",
      "outputs": [
        {
          "internalType": "uint256",
          "name": "",
          "type": "uint256"
        }
      ],
      "stateMutability": "view",
      "type": "function"
    },
    {
      "inputs": [
        {
          "internalType": "address",
          "name": "_stakingToken",
          "type": "address"
        },
        {
          "internalType": "address",
          "name": "_yieldyToken",
          "type": "address"
        },
        {
          "internalType": "address",
          "name": "_tokeToken",
          "type": "address"
        },
        {
          "internalType": "address",
          "name": "_tokePool",
          "type": "address"
        },
        {
          "internalType": "address",
          "name": "_tokeManager",
          "type": "address"
        },
        {
          "internalType": "address",
          "name": "_tokeReward",
          "type": "address"
        },
        {
          "internalType": "address",
          "name": "_liquidityReserve",
          "type": "address"
        },
        {
          "internalType": "address",
          "name": "_feeAddress",
          "type": "address"
        },
        {
          "internalType": "address",
          "name": "_curvePool",
          "type": "address"
        },
        {
          "internalType": "uint256",
          "name": "_epochDuration",
          "type": "uint256"
        },
        {
          "internalType": "uint256",
          "name": "_firstEpochEndTime",
          "type": "uint256"
        }
      ],
      "name": "initialize",
      "outputs": [],
      "stateMutability": "nonpayable",
      "type": "function"
    },
    {
      "inputs": [
        {
          "internalType": "uint256",
          "name": "_amount",
          "type": "uint256"
        },
        {
          "internalType": "uint256",
          "name": "_minAmount",
          "type": "uint256"
        }
      ],
      "name": "instantUnstakeCurve",
      "outputs": [
        {
          "internalType": "uint256",
          "name": "",
          "type": "uint256"
        }
      ],
      "stateMutability": "nonpayable",
      "type": "function"
    },
    {
      "inputs": [
        {
          "internalType": "uint256",
          "name": "_amount",
          "type": "uint256"
        }
      ],
      "name": "instantUnstakeReserve",
      "outputs": [],
      "stateMutability": "nonpayable",
      "type": "function"
    },
    {
      "inputs": [],
      "name": "isInstantUnstakingPaused",
      "outputs": [
        {
          "internalType": "bool",
          "name": "",
          "type": "bool"
        }
      ],
      "stateMutability": "view",
      "type": "function"
    },
    {
      "inputs": [],
      "name": "isStakingPaused",
      "outputs": [
        {
          "internalType": "bool",
          "name": "",
          "type": "bool"
        }
      ],
      "stateMutability": "view",
      "type": "function"
    },
    {
      "inputs": [],
      "name": "isUnstakingPaused",
      "outputs": [
        {
          "internalType": "bool",
          "name": "",
          "type": "bool"
        }
      ],
      "stateMutability": "view",
      "type": "function"
    },
    {
      "inputs": [],
      "name": "lastTokeCycleIndex",
      "outputs": [
        {
          "internalType": "uint256",
          "name": "",
          "type": "uint256"
        }
      ],
      "stateMutability": "view",
      "type": "function"
    },
    {
      "inputs": [],
      "name": "newFunction",
      "outputs": [
        {
          "internalType": "uint256",
          "name": "",
          "type": "uint256"
        }
      ],
      "stateMutability": "pure",
      "type": "function"
    },
    {
      "inputs": [],
      "name": "owner",
      "outputs": [
        {
          "internalType": "address",
          "name": "",
          "type": "address"
        }
      ],
      "stateMutability": "view",
      "type": "function"
    },
    {
      "inputs": [
        {
          "internalType": "bytes",
          "name": "orderUid",
          "type": "bytes"
        }
      ],
      "name": "preSign",
      "outputs": [],
      "stateMutability": "nonpayable",
      "type": "function"
    },
    {
      "inputs": [],
      "name": "rebase",
      "outputs": [],
      "stateMutability": "nonpayable",
      "type": "function"
    },
    {
      "inputs": [],
      "name": "renounceOwnership",
      "outputs": [],
      "stateMutability": "nonpayable",
      "type": "function"
    },
    {
      "inputs": [],
      "name": "requestWithdrawalAmount",
      "outputs": [
        {
          "internalType": "uint256",
          "name": "",
          "type": "uint256"
        }
      ],
      "stateMutability": "view",
      "type": "function"
    },
    {
      "inputs": [
        {
          "internalType": "uint256",
          "name": "_amount",
          "type": "uint256"
        }
      ],
      "name": "sendAffiliateFee",
      "outputs": [],
      "stateMutability": "nonpayable",
      "type": "function"
    },
    {
      "inputs": [],
      "name": "sendWithdrawalRequests",
      "outputs": [],
      "stateMutability": "nonpayable",
      "type": "function"
    },
    {
      "inputs": [
        {
          "internalType": "address",
          "name": "_affiliateAddress",
          "type": "address"
        }
      ],
      "name": "setAffiliateAddress",
      "outputs": [],
      "stateMutability": "nonpayable",
      "type": "function"
    },
    {
      "inputs": [
        {
          "internalType": "uint256",
          "name": "_affiliateFee",
          "type": "uint256"
        }
      ],
      "name": "setAffiliateFee",
      "outputs": [],
      "stateMutability": "nonpayable",
      "type": "function"
    },
    {
      "inputs": [
        {
          "internalType": "uint256",
          "name": "_vestingPeriod",
          "type": "uint256"
        }
      ],
      "name": "setCoolDownPeriod",
      "outputs": [],
      "stateMutability": "nonpayable",
      "type": "function"
    },
    {
      "inputs": [
        {
          "internalType": "address",
          "name": "_curvePool",
          "type": "address"
        }
      ],
      "name": "setCurvePool",
      "outputs": [],
      "stateMutability": "nonpayable",
      "type": "function"
    },
    {
      "inputs": [
        {
          "internalType": "uint256",
          "name": "duration",
          "type": "uint256"
        }
      ],
      "name": "setEpochDuration",
      "outputs": [],
      "stateMutability": "nonpayable",
      "type": "function"
    },
    {
      "inputs": [
        {
          "internalType": "uint256",
          "name": "_timestamp",
          "type": "uint256"
        }
      ],
      "name": "setTimeLeftToRequestWithdrawal",
      "outputs": [],
      "stateMutability": "nonpayable",
      "type": "function"
    },
    {
      "inputs": [
        {
          "internalType": "uint256",
          "name": "_vestingPeriod",
          "type": "uint256"
        }
      ],
      "name": "setWarmUpPeriod",
      "outputs": [],
      "stateMutability": "nonpayable",
      "type": "function"
    },
    {
      "inputs": [
        {
          "internalType": "bool",
          "name": "_shouldPause",
          "type": "bool"
        }
      ],
      "name": "shouldPauseInstantUnstaking",
      "outputs": [],
      "stateMutability": "nonpayable",
      "type": "function"
    },
    {
      "inputs": [
        {
          "internalType": "bool",
          "name": "_shouldPause",
          "type": "bool"
        }
      ],
      "name": "shouldPauseStaking",
      "outputs": [],
      "stateMutability": "nonpayable",
      "type": "function"
    },
    {
      "inputs": [
        {
          "internalType": "bool",
          "name": "_shouldPause",
          "type": "bool"
        }
      ],
      "name": "shouldPauseUnstaking",
      "outputs": [],
      "stateMutability": "nonpayable",
      "type": "function"
    },
    {
      "inputs": [
        {
          "internalType": "uint256",
          "name": "_amount",
          "type": "uint256"
        },
        {
          "internalType": "address",
          "name": "_recipient",
          "type": "address"
        }
      ],
      "name": "stake",
      "outputs": [],
      "stateMutability": "nonpayable",
      "type": "function"
    },
    {
      "inputs": [
        {
          "internalType": "uint256",
          "name": "_amount",
          "type": "uint256"
        }
      ],
      "name": "stake",
      "outputs": [],
      "stateMutability": "nonpayable",
      "type": "function"
    },
    {
      "inputs": [],
      "name": "timeLeftToRequestWithdrawal",
      "outputs": [
        {
          "internalType": "uint256",
          "name": "",
          "type": "uint256"
        }
      ],
      "stateMutability": "view",
      "type": "function"
    },
    {
      "inputs": [
        {
          "internalType": "address",
          "name": "newOwner",
          "type": "address"
        }
      ],
      "name": "transferOwnership",
      "outputs": [],
      "stateMutability": "nonpayable",
      "type": "function"
    },
    {
      "inputs": [
        {
          "internalType": "address",
          "name": "_claimAddress",
          "type": "address"
        }
      ],
      "name": "transferToke",
      "outputs": [],
      "stateMutability": "nonpayable",
      "type": "function"
    },
    {
      "inputs": [
        {
          "internalType": "uint256",
          "name": "_amount",
          "type": "uint256"
        },
        {
          "internalType": "bool",
          "name": "_trigger",
          "type": "bool"
        }
      ],
      "name": "unstake",
      "outputs": [],
      "stateMutability": "nonpayable",
      "type": "function"
    },
    {
      "inputs": [],
      "name": "unstakeAllFromTokemak",
      "outputs": [],
      "stateMutability": "nonpayable",
      "type": "function"
    },
    {
      "inputs": [
        {
          "internalType": "address",
          "name": "",
          "type": "address"
        }
      ],
      "name": "warmUpInfo",
      "outputs": [
        {
          "internalType": "uint256",
          "name": "amount",
          "type": "uint256"
        },
        {
          "internalType": "uint256",
          "name": "credits",
          "type": "uint256"
        },
        {
          "internalType": "uint256",
          "name": "expiry",
          "type": "uint256"
        }
      ],
      "stateMutability": "view",
      "type": "function"
    },
    {
      "inputs": [],
      "name": "warmUpPeriod",
      "outputs": [
        {
          "internalType": "uint256",
          "name": "",
          "type": "uint256"
        }
      ],
      "stateMutability": "view",
      "type": "function"
    },
    {
      "inputs": [],
      "name": "withdrawalAmount",
      "outputs": [
        {
          "internalType": "uint256",
          "name": "",
          "type": "uint256"
        }
      ],
      "stateMutability": "view",
      "type": "function"
    }
  ],
  "bytecode": "0x608060405234801561001057600080fd5b506150de806100206000396000f3fe608060405234801561001057600080fd5b50600436106103995760003560e01c806374320225116101e9578063b09881cc1161010f578063e2a8179d116100ad578063f3bff5921161007c578063f3bff592146108c3578063f8aeccbd146108d0578063f9a571a2146108f0578063fd5dcab81461090357600080fd5b8063e2a8179d14610867578063e6e268f414610887578063eb1edd6114610890578063f2fde38b146108b057600080fd5b8063ca57bae2116100e9578063ca57bae214610830578063d233a74714610843578063e0e8c02114610856578063e1f1c4a71461085e57600080fd5b8063b09881cc146107fe578063ba818f8d1461081e578063c9d4f3501461082757600080fd5b806386a8b4b5116101875780639ad39908116101565780639ad39908146107bd5780639ebea88c146107d0578063a694fc3a146107e3578063af14052c146107f657600080fd5b806386a8b4b5146107345780638da5cb5b14610754578063900cf0cf146107725780639776cb78146107b457600080fd5b80637fa91eba116101c35780637fa91eba146106d657806380fc16c8146106e9578063820c6f5b146106fc578063823a46a11461072b57600080fd5b8063743202251461067c5780637a0ecaeb1461069c5780637acb7757146106c357600080fd5b806330024dfe116102ce5780634bbce08b1161026c5780635b3112fc1161023b5780635b3112fc1461064657806368d8f51414610659578063715018a614610661578063736f616b1461066957600080fd5b80634bbce08b146105fa578063516c49d91461060d57806353fe23281461062057806354d4be5a1461063357600080fd5b806337df07ee116102a857806337df07ee146105b95780633897e22b146105c15780633b606454146105d45780633f69d130146105e757600080fd5b806330024dfe1461056957806330f1ebb91461057c57806333e3544a1461058557600080fd5b80631d78ed811161033b578063212f5cef11610315578063212f5cef1461050357806325126a2c14610516578063266db6aa1461053657806328ebcda11461054957600080fd5b80631d78ed81146104a85780631e83409a146104bb5780631ea7ca89146104ce57600080fd5b80631078167911610377578063107816791461041d578063156c46bf1461043d5780631b28d63e146104545780631b618cc01461045e57600080fd5b80630479d6441461039e578063050c486c146103e85780630e3f745514610408575b600080fd5b6068546103be9073ffffffffffffffffffffffffffffffffffffffff1681565b60405173ffffffffffffffffffffffffffffffffffffffff90911681526020015b60405180910390f35b606a546103be9073ffffffffffffffffffffffffffffffffffffffff1681565b61041b610416366004614ab5565b610929565b005b6065546103be9073ffffffffffffffffffffffffffffffffffffffff1681565b61044660775481565b6040519081526020016103df565b63075bcd15610446565b61048d61046c366004614b19565b60766020526000908152604090208054600182015460029092015490919083565b604080519384526020840192909252908201526060016103df565b61041b6104b6366004614b36565b610a28565b61041b6104c9366004614b19565b610cfd565b606f546104f39074010000000000000000000000000000000000000000900460ff1681565b60405190151581526020016103df565b61041b610511366004614b19565b610ef2565b6069546103be9073ffffffffffffffffffffffffffffffffffffffff1681565b610446610544366004614b4f565b610fbe565b606b546103be9073ffffffffffffffffffffffffffffffffffffffff1681565b61041b610577366004614b36565b611281565b61044660795481565b607e546105a6907001000000000000000000000000000000009004600f0b81565b604051600f9190910b81526020016103df565b61041b611340565b61041b6105cf366004614b71565b61140c565b61041b6105e2366004614b8e565b611509565b61041b6105f5366004614b71565b611cc3565b61041b610608366004614c60565b611dc1565b61041b61061b366004614b19565b611ecc565b61041b61062e366004614b19565b6120c1565b61041b610641366004614b19565b6121b7565b61041b610654366004614b36565b61237e565b61041b612404565b61041b612545565b61041b610677366004614b36565b6125d0565b606e546103be9073ffffffffffffffffffffffffffffffffffffffff1681565b606f546104f390760100000000000000000000000000000000000000000000900460ff1681565b61041b6106d1366004614cb2565b612688565b61041b6106e4366004614b71565b612ae0565b61041b6106f7366004614b36565b612bdc565b61048d61070a366004614b19565b60756020526000908152604090208054600182015460029092015490919083565b610446607a5481565b606d546103be9073ffffffffffffffffffffffffffffffffffffffff1681565b60335473ffffffffffffffffffffffffffffffffffffffff166103be565b60705460715460725460735460745461078c949392919085565b604080519586526020860194909452928401919091526060830152608082015260a0016103df565b61044660785481565b6104466107cb366004614b36565b612c94565b61041b6107de366004614ce2565b612d67565b61041b6107f1366004614b36565b612f59565b61041b612f63565b6067546103be9073ffffffffffffffffffffffffffffffffffffffff1681565b610446607d5481565b610446607c5481565b61041b61083e366004614d07565b6130fa565b61041b610851366004614b36565b6131d6565b6104f36131df565b61044661271081565b6066546103be9073ffffffffffffffffffffffffffffffffffffffff1681565b610446607b5481565b606c546103be9073ffffffffffffffffffffffffffffffffffffffff1681565b61041b6108be366004614b19565b6133d0565b607e546105a690600f0b81565b606f546103be9073ffffffffffffffffffffffffffffffffffffffff1681565b61041b6108fe366004614b36565b6134fd565b606f546104f3907501000000000000000000000000000000000000000000900460ff1681565b8115610954576068546109549073ffffffffffffffffffffffffffffffffffffffff163330866135b5565b6068546040517f70a0823100000000000000000000000000000000000000000000000000000000815230600482015260009173ffffffffffffffffffffffffffffffffffffffff16906370a082319060240160206040518083038186803b1580156109be57600080fd5b505afa1580156109d2573d6000803e3d6000fd5b505050506040513d601f19601f820116820180604052508101906109f69190614d79565b90506000607b5482610a089190614dc1565b9050610a1381613691565b8215610a2157610a21612f63565b5050505050565b60008111610a97576040517f08c379a000000000000000000000000000000000000000000000000000000000815260206004820152600e60248201527f496e76616c696420616d6f756e7400000000000000000000000000000000000060448201526064015b60405180910390fd5b606f547501000000000000000000000000000000000000000000900460ff16158015610ae05750606f54760100000000000000000000000000000000000000000000900460ff16155b610b46576040517f08c379a000000000000000000000000000000000000000000000000000000000815260206004820152601360248201527f556e7374616b696e6720697320706175736564000000000000000000000000006044820152606401610a8e565b610b4e612f63565b610b5881336136ea565b606854606b546040517f70a0823100000000000000000000000000000000000000000000000000000000815273ffffffffffffffffffffffffffffffffffffffff918216600482015260009291909116906370a082319060240160206040518083038186803b158015610bca57600080fd5b505afa158015610bde573d6000803e3d6000fd5b505050506040513d601f19601f82011682018060405250810190610c029190614d79565b905081811015610c6e576040517f08c379a000000000000000000000000000000000000000000000000000000000815260206004820152601b60248201527f4e6f7420656e6f7567682066756e647320696e207265736572766500000000006044820152606401610a8e565b606b546040517fbbb6a9830000000000000000000000000000000000000000000000000000000081526004810184905233602482015273ffffffffffffffffffffffffffffffffffffffff9091169063bbb6a983906044015b600060405180830381600087803b158015610ce157600080fd5b505af1158015610cf5573d6000803e3d6000fd5b505050505050565b73ffffffffffffffffffffffffffffffffffffffff81166000908152607560209081526040918290208251606081018452815481526001820154928101929092526002015491810191909152610d5282613b19565b15610eee5773ffffffffffffffffffffffffffffffffffffffff821660009081526075602090815260408220828155600181018390556002019190915581015115610eee5760695460208201516040517f92386fb5000000000000000000000000000000000000000000000000000000008152600481019190915273ffffffffffffffffffffffffffffffffffffffff9091169063a9059cbb90849083906392386fb59060240160206040518083038186803b158015610e1157600080fd5b505afa158015610e25573d6000803e3d6000fd5b505050506040513d601f19601f82011682018060405250810190610e499190614d79565b6040517fffffffff0000000000000000000000000000000000000000000000000000000060e085901b16815273ffffffffffffffffffffffffffffffffffffffff90921660048301526024820152604401602060405180830381600087803b158015610eb457600080fd5b505af1158015610ec8573d6000803e3d6000fd5b505050506040513d601f19601f82011682018060405250810190610eec9190614dd8565b505b5050565b60335473ffffffffffffffffffffffffffffffffffffffff163314610f73576040517f08c379a000000000000000000000000000000000000000000000000000000000815260206004820181905260248201527f4f776e61626c653a2063616c6c6572206973206e6f7420746865206f776e65726044820152606401610a8e565b606d80547fffffffffffffffffffffffff00000000000000000000000000000000000000001673ffffffffffffffffffffffffffffffffffffffff8316179055610fbb613b7b565b50565b6000808311611029576040517f08c379a000000000000000000000000000000000000000000000000000000000815260206004820152600e60248201527f496e76616c696420616d6f756e740000000000000000000000000000000000006044820152606401610a8e565b606d5473ffffffffffffffffffffffffffffffffffffffff16158015906110785750607e54600f0b600114806110785750607e547001000000000000000000000000000000009004600f0b6001145b6110de576040517f08c379a000000000000000000000000000000000000000000000000000000000815260206004820152601260248201527f496e76616c696420437572766520506f6f6c00000000000000000000000000006044820152606401610a8e565b606f547501000000000000000000000000000000000000000000900460ff161580156111275750606f54760100000000000000000000000000000000000000000000900460ff16155b61118d576040517f08c379a000000000000000000000000000000000000000000000000000000000815260206004820152601360248201527f556e7374616b696e6720697320706175736564000000000000000000000000006044820152606401610a8e565b611195612f63565b61119f83336136ea565b606d54607e546040517fddc1f59d000000000000000000000000000000000000000000000000000000008152600f82810b600483015270010000000000000000000000000000000090920490910b6024820152604481018590526064810184905233608482015273ffffffffffffffffffffffffffffffffffffffff9091169063ddc1f59d9060a401602060405180830381600087803b15801561124257600080fd5b505af1158015611256573d6000803e3d6000fd5b505050506040513d601f19601f8201168201806040525081019061127a9190614d79565b9392505050565b60335473ffffffffffffffffffffffffffffffffffffffff163314611302576040517f08c379a000000000000000000000000000000000000000000000000000000000815260206004820181905260248201527f4f776e61626c653a2063616c6c6572206973206e6f7420746865206f776e65726044820152606401610a8e565b607081905560405181815243907fae75be1f12d8228aa4758ec68e22289c11eeefacda519562b752e6094974fd8f906020015b60405180910390a250565b6113486131df565b1561140a57611355613e99565b606654607a5473ffffffffffffffffffffffffffffffffffffffff909116901561138457611384607a546140a8565b60008173ffffffffffffffffffffffffffffffffffffffff1663857909456040518163ffffffff1660e01b815260040160206040518083038186803b1580156113cc57600080fd5b505afa1580156113e0573d6000803e3d6000fd5b505050506040513d601f19601f820116820180604052508101906114049190614d79565b607c5550505b565b60335473ffffffffffffffffffffffffffffffffffffffff16331461148d576040517f08c379a000000000000000000000000000000000000000000000000000000000815260206004820181905260248201527f4f776e61626c653a2063616c6c6572206973206e6f7420746865206f776e65726044820152606401610a8e565b606f80548215157501000000000000000000000000000000000000000000027fffffffffffffffffffff00ffffffffffffffffffffffffffffffffffffffffff90911617905560405143907fb10ce310bab2ca2b94bb817ad34e180c7f2fefeb2ad9ce04aef298ea93de4f5b9061133590841515815260200190565b600054610100900460ff166115245760005460ff1615611528565b303b155b6115b4576040517f08c379a000000000000000000000000000000000000000000000000000000000815260206004820152602e60248201527f496e697469616c697a61626c653a20636f6e747261637420697320616c72656160448201527f647920696e697469616c697a65640000000000000000000000000000000000006064820152608401610a8e565b600054610100900460ff161580156115f357600080547fffffffffffffffffffffffffffffffffffffffffffffffffffffffffffff0000166101011790555b6115fb6141ef565b73ffffffffffffffffffffffffffffffffffffffff8c1615801590611635575073ffffffffffffffffffffffffffffffffffffffff8b1615155b8015611656575073ffffffffffffffffffffffffffffffffffffffff8a1615155b8015611677575073ffffffffffffffffffffffffffffffffffffffff891615155b8015611698575073ffffffffffffffffffffffffffffffffffffffff881615155b80156116b9575073ffffffffffffffffffffffffffffffffffffffff871615155b80156116da575073ffffffffffffffffffffffffffffffffffffffff861615155b611740576040517f08c379a000000000000000000000000000000000000000000000000000000000815260206004820152600f60248201527f496e76616c6964206164647265737300000000000000000000000000000000006044820152606401610a8e565b606880547fffffffffffffffffffffffff000000000000000000000000000000000000000090811673ffffffffffffffffffffffffffffffffffffffff8f8116919091179092556069805482168e8416179055606a805482168d84161790556065805482168c84161790556066805482168b84161790556067805482168a8416179055606b80548216898416179055606c80548216888416179055606d805482169287169283179055606e8054739008d19f58aabd9ed0d60971565aa8510560ab41908316179055606f805473c92e8bdf79f0507f65a392b0ab4667716bfe0110921691909117905561a8c06077551561190a57606554606d546040517f095ea7b300000000000000000000000000000000000000000000000000000000815273ffffffffffffffffffffffffffffffffffffffff91821660048201527fffffffffffffffffffffffffffffffffffffffffffffffffffffffffffffffff602482015291169063095ea7b390604401602060405180830381600087803b1580156118c957600080fd5b505af11580156118dd573d6000803e3d6000fd5b505050506040513d601f19601f820116820180604052508101906119019190614dd8565b5061190a613b7b565b6068546065546040517f095ea7b300000000000000000000000000000000000000000000000000000000815273ffffffffffffffffffffffffffffffffffffffff91821660048201527fffffffffffffffffffffffffffffffffffffffffffffffffffffffffffffffff602482015291169063095ea7b390604401602060405180830381600087803b15801561199f57600080fd5b505af11580156119b3573d6000803e3d6000fd5b505050506040513d601f19601f820116820180604052508101906119d79190614dd8565b50606954606b546040517f095ea7b300000000000000000000000000000000000000000000000000000000815273ffffffffffffffffffffffffffffffffffffffff91821660048201527fffffffffffffffffffffffffffffffffffffffffffffffffffffffffffffffff602482015291169063095ea7b390604401602060405180830381600087803b158015611a6d57600080fd5b505af1158015611a81573d6000803e3d6000fd5b505050506040513d601f19601f82011682018060405250810190611aa59190614dd8565b50606954606b546040517f095ea7b300000000000000000000000000000000000000000000000000000000815273ffffffffffffffffffffffffffffffffffffffff91821660048201527fffffffffffffffffffffffffffffffffffffffffffffffffffffffffffffffff602482015291169063095ea7b390604401602060405180830381600087803b158015611b3b57600080fd5b505af1158015611b4f573d6000803e3d6000fd5b505050506040513d601f19601f82011682018060405250810190611b739190614dd8565b50606a54606f546040517f095ea7b300000000000000000000000000000000000000000000000000000000815273ffffffffffffffffffffffffffffffffffffffff91821660048201527fffffffffffffffffffffffffffffffffffffffffffffffffffffffffffffffff602482015291169063095ea7b390604401602060405180830381600087803b158015611c0957600080fd5b505af1158015611c1d573d6000803e3d6000fd5b505050506040513d601f19601f82011682018060405250810190611c419190614dd8565b506040805160a081018252848152600160208201819052429282018390526060820185905260006080909201829052607086905560715560729190915560738390556074558015611cb557600080547fffffffffffffffffffffffffffffffffffffffffffffffffffffffffffff00ff1690555b505050505050505050505050565b60335473ffffffffffffffffffffffffffffffffffffffff163314611d44576040517f08c379a000000000000000000000000000000000000000000000000000000000815260206004820181905260248201527f4f776e61626c653a2063616c6c6572206973206e6f7420746865206f776e65726044820152606401610a8e565b606f8054821515760100000000000000000000000000000000000000000000027fffffffffffffffffff00ffffffffffffffffffffffffffffffffffffffffffff90911617905560405143907f50b6b2724155fca2923d974f5d873ee0f0c9a1b420003eb054ab3f52d2fe0b4e9061133590841515815260200190565b6000846060013511611e2f576040517f08c379a000000000000000000000000000000000000000000000000000000000815260206004820152601760248201527f4d75737420656e7465722076616c696420616d6f756e740000000000000000006044820152606401610a8e565b6067546040517fe1fc869100000000000000000000000000000000000000000000000000000000815273ffffffffffffffffffffffffffffffffffffffff90911690819063e1fc869190611e8d908890889088908890600401614df5565b600060405180830381600087803b158015611ea757600080fd5b505af1158015611ebb573d6000803e3d6000fd5b50505050610a21856060013561428e565b73ffffffffffffffffffffffffffffffffffffffff818116600090815260766020908152604080832081516060810183528154815260018201549381018490526002909101548183015260695491517f92386fb500000000000000000000000000000000000000000000000000000000815260048101939093529316906392386fb59060240160206040518083038186803b158015611f6a57600080fd5b505afa158015611f7e573d6000803e3d6000fd5b505050506040513d601f19601f82011682018060405250810190611fa29190614d79565b9050611fad83614305565b15610eec57611fba613e99565b73ffffffffffffffffffffffffffffffffffffffff83166000908152607660205260408120818155600181018290556002018190558251607b805491929091612004908490614dc1565b909155505081516068546120329173ffffffffffffffffffffffffffffffffffffffff9091169085906144d9565b6069546040517f9dc29fac0000000000000000000000000000000000000000000000000000000081523060048201526024810183905273ffffffffffffffffffffffffffffffffffffffff90911690639dc29fac90604401600060405180830381600087803b1580156120a457600080fd5b505af11580156120b8573d6000803e3d6000fd5b50505050505050565b60335473ffffffffffffffffffffffffffffffffffffffff163314612142576040517f08c379a000000000000000000000000000000000000000000000000000000000815260206004820181905260248201527f4f776e61626c653a2063616c6c6572206973206e6f7420746865206f776e65726044820152606401610a8e565b606c80547fffffffffffffffffffffffff00000000000000000000000000000000000000001673ffffffffffffffffffffffffffffffffffffffff831690811790915560405190815243907f2c1ada70981f6fddd8947ab85f99a6228532dde71841ad77d7b4dfc74b9b04f790602001611335565b60335473ffffffffffffffffffffffffffffffffffffffff163314612238576040517f08c379a000000000000000000000000000000000000000000000000000000000815260206004820181905260248201527f4f776e61626c653a2063616c6c6572206973206e6f7420746865206f776e65726044820152606401610a8e565b73ffffffffffffffffffffffffffffffffffffffff81166122b5576040517f08c379a000000000000000000000000000000000000000000000000000000000815260206004820152600f60248201527f496e76616c6964206164647265737300000000000000000000000000000000006044820152606401610a8e565b606a546040517f70a0823100000000000000000000000000000000000000000000000000000000815230600482015260009173ffffffffffffffffffffffffffffffffffffffff16906370a082319060240160206040518083038186803b15801561231f57600080fd5b505afa158015612333573d6000803e3d6000fd5b505050506040513d601f19601f820116820180604052508101906123579190614d79565b606a54909150610eee9073ffffffffffffffffffffffffffffffffffffffff1683836144d9565b60335473ffffffffffffffffffffffffffffffffffffffff1633146123ff576040517f08c379a000000000000000000000000000000000000000000000000000000000815260206004820181905260248201527f4f776e61626c653a2063616c6c6572206973206e6f7420746865206f776e65726044820152606401610a8e565b607755565b60335473ffffffffffffffffffffffffffffffffffffffff163314612485576040517f08c379a000000000000000000000000000000000000000000000000000000000815260206004820181905260248201527f4f776e61626c653a2063616c6c6572206973206e6f7420746865206f776e65726044820152606401610a8e565b6065546040517f70a0823100000000000000000000000000000000000000000000000000000000815230600482015273ffffffffffffffffffffffffffffffffffffffff9091169060009082906370a082319060240160206040518083038186803b1580156124f357600080fd5b505afa158015612507573d6000803e3d6000fd5b505050506040513d601f19601f8201168201806040525081019061252b9190614d79565b90506125376001612ae0565b607a819055610eee816140a8565b60335473ffffffffffffffffffffffffffffffffffffffff1633146125c6576040517f08c379a000000000000000000000000000000000000000000000000000000000815260206004820181905260248201527f4f776e61626c653a2063616c6c6572206973206e6f7420746865206f776e65726044820152606401610a8e565b61140a600061452f565b60335473ffffffffffffffffffffffffffffffffffffffff163314612651576040517f08c379a000000000000000000000000000000000000000000000000000000000815260206004820181905260248201527f4f776e61626c653a2063616c6c6572206973206e6f7420746865206f776e65726044820152606401610a8e565b607981905560405181815243907f5c7e8dffa0ac359bd82a2f2cfc3d0ac8f671ae530f22e691d6fb99af06aaba2490602001611335565b606f5474010000000000000000000000000000000000000000900460ff161561270d576040517f08c379a000000000000000000000000000000000000000000000000000000000815260206004820152601160248201527f5374616b696e67206973207061757365640000000000000000000000000000006044820152606401610a8e565b60008211612777576040517f08c379a000000000000000000000000000000000000000000000000000000000815260206004820152601660248201527f4d75737420686176652076616c696420616d6f756e74000000000000000000006044820152606401610a8e565b606954604080517f18160ddd000000000000000000000000000000000000000000000000000000008152905160009273ffffffffffffffffffffffffffffffffffffffff16916318160ddd916004808301926020929190829003018186803b1580156127e257600080fd5b505afa1580156127f6573d6000803e3d6000fd5b505050506040513d601f19601f8201168201806040525081019061281a9190614d79565b9050801561282a5761282a612f63565b60685461284f9073ffffffffffffffffffffffffffffffffffffffff163330866135b5565b73ffffffffffffffffffffffffffffffffffffffff8216600090815260756020526040902061287d83613b19565b1561288b5761288b83610cfd565b61289484613691565b60785461292c576069546040517f40c10f1900000000000000000000000000000000000000000000000000000000815273ffffffffffffffffffffffffffffffffffffffff858116600483015260248201879052909116906340c10f1990604401600060405180830381600087803b15801561290f57600080fd5b505af1158015612923573d6000803e3d6000fd5b50505050612ad2565b60405180606001604052808583600001546129479190614e5a565b81526069546040517f20eed4290000000000000000000000000000000000000000000000000000000081526004810188905260209092019173ffffffffffffffffffffffffffffffffffffffff909116906320eed4299060240160206040518083038186803b1580156129b957600080fd5b505afa1580156129cd573d6000803e3d6000fd5b505050506040513d601f19601f820116820180604052508101906129f19190614d79565b8360010154612a009190614e5a565b8152602001607854607060010154612a189190614e5a565b905273ffffffffffffffffffffffffffffffffffffffff848116600090815260756020908152604091829020845181559084015160018201559281015160029093019290925560695491517f40c10f19000000000000000000000000000000000000000000000000000000008152306004820152602481018790529116906340c10f1990604401600060405180830381600087803b158015612ab957600080fd5b505af1158015612acd573d6000803e3d6000fd5b505050505b612ada611340565b50505050565b60335473ffffffffffffffffffffffffffffffffffffffff163314612b61576040517f08c379a000000000000000000000000000000000000000000000000000000000815260206004820181905260248201527f4f776e61626c653a2063616c6c6572206973206e6f7420746865206f776e65726044820152606401610a8e565b606f805482151574010000000000000000000000000000000000000000027fffffffffffffffffffffff00ffffffffffffffffffffffffffffffffffffffff90911617905560405143907f86a34bd7f66bd3b2e87f46767dbd4958cc483e1fa3be1485fcf9d75c068eb1ca9061133590841515815260200190565b60335473ffffffffffffffffffffffffffffffffffffffff163314612c5d576040517f08c379a000000000000000000000000000000000000000000000000000000000815260206004820181905260248201527f4f776e61626c653a2063616c6c6572206973206e6f7420746865206f776e65726044820152606401610a8e565b607d81905560405181815243907f93cde8a616d6082d00b343f8fe4f55ef08dc0f8aec52cc4dfaf3192abe1287c390602001611335565b606d54607e546040517f5e0d443f000000000000000000000000000000000000000000000000000000008152600f82810b600483015270010000000000000000000000000000000090920490910b60248201526044810183905260009173ffffffffffffffffffffffffffffffffffffffff1690635e0d443f9060640160206040518083038186803b158015612d2957600080fd5b505afa158015612d3d573d6000803e3d6000fd5b505050506040513d601f19601f82011682018060405250810190612d619190614d79565b92915050565b606f547501000000000000000000000000000000000000000000900460ff1615612ded576040517f08c379a000000000000000000000000000000000000000000000000000000000815260206004820152601360248201527f556e7374616b696e6720697320706175736564000000000000000000000000006044820152606401610a8e565b8015612dfb57612dfb612f63565b612e0582336136ea565b33600081815260766020526040902090612e1e90611ecc565b6040518060600160405280848360000154612e399190614e5a565b81526069546040517f20eed4290000000000000000000000000000000000000000000000000000000081526004810187905260209092019173ffffffffffffffffffffffffffffffffffffffff909116906320eed4299060240160206040518083038186803b158015612eab57600080fd5b505afa158015612ebf573d6000803e3d6000fd5b505050506040513d601f19601f82011682018060405250810190612ee39190614d79565b8360010154612ef29190614e5a565b8152602001607954607060010154612f0a9190614e5a565b9052336000908152607660209081526040808320845181559184015160018301559290920151600290920191909155607a8054859290612f4b908490614e5a565b90915550610eec9050611340565b610fbb8133612688565b607354421061140a576069546074546071546040517f058ecdb40000000000000000000000000000000000000000000000000000000081526004810192909252602482015273ffffffffffffffffffffffffffffffffffffffff9091169063058ecdb490604401600060405180830381600087803b158015612fe457600080fd5b505af1158015612ff8573d6000803e3d6000fd5b505060705460735461300d9350909150614e5a565b607355426072556071805490600061302483614e72565b919050555060006130336145a6565b90506000606960009054906101000a900473ffffffffffffffffffffffffffffffffffffffff1673ffffffffffffffffffffffffffffffffffffffff166318160ddd6040518163ffffffff1660e01b815260040160206040518083038186803b15801561309f57600080fd5b505afa1580156130b3573d6000803e3d6000fd5b505050506040513d601f19601f820116820180604052508101906130d79190614d79565b90508082116130e95760006074555050565b6130f38183614dc1565b6074555050565b60335473ffffffffffffffffffffffffffffffffffffffff16331461317b576040517f08c379a000000000000000000000000000000000000000000000000000000000815260206004820181905260248201527f4f776e61626c653a2063616c6c6572206973206e6f7420746865206f776e65726044820152606401610a8e565b606e546040517fec6cb13f00000000000000000000000000000000000000000000000000000000815273ffffffffffffffffffffffffffffffffffffffff9091169063ec6cb13f90610cc79085908590600190600401614eab565b610fbb8161428e565b606654604080517fbd5da9ac000000000000000000000000000000000000000000000000000000008152905160009273ffffffffffffffffffffffffffffffffffffffff16918391839163bd5da9ac916004808301926020929190829003018186803b15801561324e57600080fd5b505afa158015613262573d6000803e3d6000fd5b505050506040513d601f19601f820116820180604052508101906132869190614d79565b905060008273ffffffffffffffffffffffffffffffffffffffff1663be26ed7f6040518163ffffffff1660e01b815260040160206040518083038186803b1580156132d057600080fd5b505afa1580156132e4573d6000803e3d6000fd5b505050506040513d601f19601f820116820180604052508101906133089190614d79565b905060008373ffffffffffffffffffffffffffffffffffffffff1663857909456040518163ffffffff1660e01b815260040160206040518083038186803b15801561335257600080fd5b505afa158015613366573d6000803e3d6000fd5b505050506040513d601f19601f8201168201806040525081019061338a9190614d79565b905060006133988484614e5a565b905080607754426133a99190614e5a565b101580156133b85750607c5482115b80156133c657506000607a54115b9550505050505090565b60335473ffffffffffffffffffffffffffffffffffffffff163314613451576040517f08c379a000000000000000000000000000000000000000000000000000000000815260206004820181905260248201527f4f776e61626c653a2063616c6c6572206973206e6f7420746865206f776e65726044820152606401610a8e565b73ffffffffffffffffffffffffffffffffffffffff81166134f4576040517f08c379a000000000000000000000000000000000000000000000000000000000815260206004820152602660248201527f4f776e61626c653a206e6577206f776e657220697320746865207a65726f206160448201527f64647265737300000000000000000000000000000000000000000000000000006064820152608401610a8e565b610fbb8161452f565b60335473ffffffffffffffffffffffffffffffffffffffff16331461357e576040517f08c379a000000000000000000000000000000000000000000000000000000000815260206004820181905260248201527f4f776e61626c653a2063616c6c6572206973206e6f7420746865206f776e65726044820152606401610a8e565b607881905560405181815243907fd8f10b001d80d0f1a24960632b7678bf460573321ed31239086fb92a90221a3e90602001611335565b60405173ffffffffffffffffffffffffffffffffffffffff80851660248301528316604482015260648101829052612ada9085907f23b872dd00000000000000000000000000000000000000000000000000000000906084015b604080517fffffffffffffffffffffffffffffffffffffffffffffffffffffffffffffffe08184030181529190526020810180517bffffffffffffffffffffffffffffffffffffffffffffffffffffffff167fffffffff0000000000000000000000000000000000000000000000000000000090931692909217909152614667565b6065546040517fb6b55f250000000000000000000000000000000000000000000000000000000081526004810183905273ffffffffffffffffffffffffffffffffffffffff90911690819063b6b55f2590602401610cc7565b73ffffffffffffffffffffffffffffffffffffffff8181166000818152607560209081526040808320815160608101835281548152600182015493810193909352600201548282015260695490517f70a082310000000000000000000000000000000000000000000000000000000081526004810194909452909391929116906370a082319060240160206040518083038186803b15801561378b57600080fd5b505afa15801561379f573d6000803e3d6000fd5b505050506040513d601f19601f820116820180604052508101906137c39190614d79565b60695460208401516040517f92386fb500000000000000000000000000000000000000000000000000000000815292935060009273ffffffffffffffffffffffffffffffffffffffff909216916392386fb5916138269160040190815260200190565b60206040518083038186803b15801561383e57600080fd5b505afa158015613852573d6000803e3d6000fd5b505050506040513d601f19601f820116820180604052508101906138769190614d79565b90506138828183614e5a565b8511156138eb576040517f08c379a000000000000000000000000000000000000000000000000000000000815260206004820152601460248201527f496e73756666696369656e742042616c616e63650000000000000000000000006044820152606401610a8e565b848115613aee578186106139345773ffffffffffffffffffffffffffffffffffffffff851660009081526075602052604081208181556001810182905560020155819003613aee565b506069546040517f20eed42900000000000000000000000000000000000000000000000000000000815260048101879052600091829173ffffffffffffffffffffffffffffffffffffffff909116906320eed4299060240160206040518083038186803b1580156139a457600080fd5b505afa1580156139b8573d6000803e3d6000fd5b505050506040513d601f19601f820116820180604052508101906139dc9190614d79565b85602001516139eb9190614dc1565b6069546040517f92386fb50000000000000000000000000000000000000000000000000000000081526004810183905291925060009173ffffffffffffffffffffffffffffffffffffffff909116906392386fb59060240160206040518083038186803b158015613a5b57600080fd5b505afa158015613a6f573d6000803e3d6000fd5b505050506040513d601f19601f82011682018060405250810190613a939190614d79565b6040805160608101825291825260208083019485528882015183830190815273ffffffffffffffffffffffffffffffffffffffff8b166000908152607590925291902091518255925160018201559151600290920191909155505b8015610cf557606954610cf59073ffffffffffffffffffffffffffffffffffffffff168630846135b5565b73ffffffffffffffffffffffffffffffffffffffff81166000908152607560209081526040808320815160608101835281548152600182015493810193909352600201549082018190526071541080159061127a575060400151151592915050565b606d5473ffffffffffffffffffffffffffffffffffffffff161561140a57606d546040517fc66106570000000000000000000000000000000000000000000000000000000081526000600482018190529173ffffffffffffffffffffffffffffffffffffffff169063c66106579060240160206040518083038186803b158015613c0457600080fd5b505afa158015613c18573d6000803e3d6000fd5b505050506040513d601f19601f82011682018060405250810190613c3c9190614f04565b606d546040517fc66106570000000000000000000000000000000000000000000000000000000081526001600482015291925060009173ffffffffffffffffffffffffffffffffffffffff9091169063c66106579060240160206040518083038186803b158015613cac57600080fd5b505afa158015613cc0573d6000803e3d6000fd5b505050506040513d601f19601f82011682018060405250810190613ce49190614f04565b606554909150600090819073ffffffffffffffffffffffffffffffffffffffff8581169116148015613d30575060685473ffffffffffffffffffffffffffffffffffffffff8481169116145b15613d3d57506001613d8b565b60655473ffffffffffffffffffffffffffffffffffffffff8481169116148015613d81575060685473ffffffffffffffffffffffffffffffffffffffff8581169116145b15613d8b57600191505b81600f0b60011480613da0575080600f0b6001145b613e06576040517f08c379a000000000000000000000000000000000000000000000000000000000815260206004820152601260248201527f496e76616c696420437572766520506f6f6c00000000000000000000000000006044820152606401610a8e565b6fffffffffffffffffffffffffffffffff828116700100000000000000000000000000000000918316820217607e819055606d5460408051938304600f90810b85529290920b602084015273ffffffffffffffffffffffffffffffffffffffff16917f828513d9eccf264077e51323c8dd0fa90720141ef138beef5f967e4a7bf25cb8910160405180910390a250505050565b6065546066546040517fbb582d8000000000000000000000000000000000000000000000000000000000815230600482015273ffffffffffffffffffffffffffffffffffffffff9283169290911690600090839063bb582d80906024016040805180830381600087803b158015613f0f57600080fd5b505af1158015613f23573d6000803e3d6000fd5b505050506040513d601f19601f82011682018060405250810190613f479190614f21565b905060008273ffffffffffffffffffffffffffffffffffffffff1663857909456040518163ffffffff1660e01b815260040160206040518083038186803b158015613f9157600080fd5b505afa158015613fa5573d6000803e3d6000fd5b505050506040513d601f19601f82011682018060405250810190613fc99190614d79565b905060008260200151118015613fe0575081518110155b15612ada5760208201516040517f2e1a7d4d000000000000000000000000000000000000000000000000000000008152600481019190915273ffffffffffffffffffffffffffffffffffffffff851690632e1a7d4d90602401600060405180830381600087803b15801561405357600080fd5b505af1158015614067573d6000803e3d6000fd5b505050508160200151607a60008282546140819190614dc1565b90915550506020820151607b805460009061409d908490614e5a565b909155505050505050565b6065546040517f70a0823100000000000000000000000000000000000000000000000000000000815230600482015273ffffffffffffffffffffffffffffffffffffffff9091169060009082906370a082319060240160206040518083038186803b15801561411657600080fd5b505afa15801561412a573d6000803e3d6000fd5b505050506040513d601f19601f8201168201806040525081019061414e9190614d79565b9050600083821061415f5783614161565b815b90508015612ada576040517f9ee679e80000000000000000000000000000000000000000000000000000000081526004810185905273ffffffffffffffffffffffffffffffffffffffff841690639ee679e890602401600060405180830381600087803b1580156141d157600080fd5b505af11580156141e5573d6000803e3d6000fd5b5050505050505050565b600054610100900460ff16614286576040517f08c379a000000000000000000000000000000000000000000000000000000000815260206004820152602b60248201527f496e697469616c697a61626c653a20636f6e7472616374206973206e6f74206960448201527f6e697469616c697a696e670000000000000000000000000000000000000000006064820152608401610a8e565b61140a614773565b607d54158015906142b65750606c5473ffffffffffffffffffffffffffffffffffffffff1615155b15610fbb576000612710607d54836142ce9190614f97565b6142d89190614fd4565b606c54606a54919250610eee9173ffffffffffffffffffffffffffffffffffffffff9081169116836144d9565b73ffffffffffffffffffffffffffffffffffffffff8181166000908152607660209081526040808320815160608101835281548152600182015493810193909352600201548282015260665460655491517fbb582d80000000000000000000000000000000000000000000000000000000008152306004820152939492939083169291909116908490829063bb582d80906024016040805180830381600087803b1580156143b257600080fd5b505af11580156143c6573d6000803e3d6000fd5b505050506040513d601f19601f820116820180604052508101906143ea9190614f21565b905060008373ffffffffffffffffffffffffffffffffffffffff1663857909456040518163ffffffff1660e01b815260040160206040518083038186803b15801561443457600080fd5b505afa158015614448573d6000803e3d6000fd5b505050506040513d601f19601f8201168201806040525081019061446c9190614d79565b905084604001516070600101541015801561448a5750604085015115155b80156144965750845115155b80156144ce5750815181108015906144c057508451607b5460208401516144bd9190614e5a565b10155b806144ce57508451607b5410155b979650505050505050565b60405173ffffffffffffffffffffffffffffffffffffffff8316602482015260448101829052610eec9084907fa9059cbb000000000000000000000000000000000000000000000000000000009060640161360f565b6033805473ffffffffffffffffffffffffffffffffffffffff8381167fffffffffffffffffffffffff0000000000000000000000000000000000000000831681179093556040519116919082907f8be0079c531659141344cd1fd0a4f28419497f9722a3daafe3b4186f6b6457e090600090a35050565b6000806145b1614813565b6068546040517f70a08231000000000000000000000000000000000000000000000000000000008152306004820152919250829173ffffffffffffffffffffffffffffffffffffffff909116906370a082319060240160206040518083038186803b15801561461f57600080fd5b505afa158015614633573d6000803e3d6000fd5b505050506040513d601f19601f820116820180604052508101906146579190614d79565b6146619190614e5a565b91505090565b60006146c9826040518060400160405280602081526020017f5361666545524332303a206c6f772d6c6576656c2063616c6c206661696c65648152508573ffffffffffffffffffffffffffffffffffffffff166148b79092919063ffffffff16565b805190915015610eec57808060200190518101906146e79190614dd8565b610eec576040517f08c379a000000000000000000000000000000000000000000000000000000000815260206004820152602a60248201527f5361666545524332303a204552433230206f7065726174696f6e20646964206e60448201527f6f742073756363656564000000000000000000000000000000000000000000006064820152608401610a8e565b600054610100900460ff1661480a576040517f08c379a000000000000000000000000000000000000000000000000000000000815260206004820152602b60248201527f496e697469616c697a61626c653a20636f6e7472616374206973206e6f74206960448201527f6e697469616c697a696e670000000000000000000000000000000000000000006064820152608401610a8e565b61140a3361452f565b6065546040517f70a0823100000000000000000000000000000000000000000000000000000000815230600482015260009173ffffffffffffffffffffffffffffffffffffffff169081906370a082319060240160206040518083038186803b15801561487f57600080fd5b505afa158015614893573d6000803e3d6000fd5b505050506040513d601f19601f820116820180604052508101906146619190614d79565b60606148c684846000856148ce565b949350505050565b606082471015614960576040517f08c379a000000000000000000000000000000000000000000000000000000000815260206004820152602660248201527f416464726573733a20696e73756666696369656e742062616c616e636520666f60448201527f722063616c6c00000000000000000000000000000000000000000000000000006064820152608401610a8e565b73ffffffffffffffffffffffffffffffffffffffff85163b6149de576040517f08c379a000000000000000000000000000000000000000000000000000000000815260206004820152601d60248201527f416464726573733a2063616c6c20746f206e6f6e2d636f6e74726163740000006044820152606401610a8e565b6000808673ffffffffffffffffffffffffffffffffffffffff168587604051614a07919061503b565b60006040518083038185875af1925050503d8060008114614a44576040519150601f19603f3d011682016040523d82523d6000602084013e614a49565b606091505b50915091506144ce82828660608315614a6357508161127a565b825115614a735782518084602001fd5b816040517f08c379a0000000000000000000000000000000000000000000000000000000008152600401610a8e9190615057565b8015158114610fbb57600080fd5b600080600060608486031215614aca57600080fd5b833592506020840135614adc81614aa7565b91506040840135614aec81614aa7565b809150509250925092565b73ffffffffffffffffffffffffffffffffffffffff81168114610fbb57600080fd5b600060208284031215614b2b57600080fd5b813561127a81614af7565b600060208284031215614b4857600080fd5b5035919050565b60008060408385031215614b6257600080fd5b50508035926020909101359150565b600060208284031215614b8357600080fd5b813561127a81614aa7565b60008060008060008060008060008060006101608c8e031215614bb057600080fd5b8b35614bbb81614af7565b9a5060208c0135614bcb81614af7565b995060408c0135614bdb81614af7565b985060608c0135614beb81614af7565b975060808c0135614bfb81614af7565b965060a08c0135614c0b81614af7565b955060c08c0135614c1b81614af7565b945060e08c0135614c2b81614af7565b93506101008c0135614c3c81614af7565b809350506101208c013591506101408c013590509295989b509295989b9093969950565b60008060008084860360e0811215614c7757600080fd5b6080811215614c8557600080fd5b50849350608085013560ff81168114614c9d57600080fd5b939693955050505060a08201359160c0013590565b60008060408385031215614cc557600080fd5b823591506020830135614cd781614af7565b809150509250929050565b60008060408385031215614cf557600080fd5b823591506020830135614cd781614aa7565b60008060208385031215614d1a57600080fd5b823567ffffffffffffffff80821115614d3257600080fd5b818501915085601f830112614d4657600080fd5b813581811115614d5557600080fd5b866020828501011115614d6757600080fd5b60209290920196919550909350505050565b600060208284031215614d8b57600080fd5b5051919050565b7f4e487b7100000000000000000000000000000000000000000000000000000000600052601160045260246000fd5b600082821015614dd357614dd3614d92565b500390565b600060208284031215614dea57600080fd5b815161127a81614aa7565b843581526020808601359082015260e081016040860135614e1581614af7565b73ffffffffffffffffffffffffffffffffffffffff81166040840152506060860135606083015260ff851660808301528360a08301528260c083015295945050505050565b60008219821115614e6d57614e6d614d92565b500190565b60007fffffffffffffffffffffffffffffffffffffffffffffffffffffffffffffffff821415614ea457614ea4614d92565b5060010190565b6040815282604082015282846060830137600060608483010152600060607fffffffffffffffffffffffffffffffffffffffffffffffffffffffffffffffe0601f86011683010190508215156020830152949350505050565b600060208284031215614f1657600080fd5b815161127a81614af7565b600060408284031215614f3357600080fd5b6040516040810181811067ffffffffffffffff82111715614f7d577f4e487b7100000000000000000000000000000000000000000000000000000000600052604160045260246000fd5b604052825181526020928301519281019290925250919050565b6000817fffffffffffffffffffffffffffffffffffffffffffffffffffffffffffffffff0483118215151615614fcf57614fcf614d92565b500290565b60008261500a577f4e487b7100000000000000000000000000000000000000000000000000000000600052601260045260246000fd5b500490565b60005b8381101561502a578181015183820152602001615012565b83811115612ada5750506000910152565b6000825161504d81846020870161500f565b9190910192915050565b602081526000825180602084015261507681604085016020870161500f565b601f017fffffffffffffffffffffffffffffffffffffffffffffffffffffffffffffffe016919091016040019291505056fea26469706673582212206b57e903cdc4bebe34ad1b1f8abab1151294fbe286730151634ea8f7b143de8864736f6c63430008090033",
  "linkReferences": {},
  "deployedLinkReferences": {}
}